{
  "_format": "hh-sol-artifact-1",
  "contractName": "ERC2981PerTokenRoyalties",
  "sourceName": "contracts/ERC2981PerTokenRoyalties.sol",
  "abi": [
    {
      "inputs": [
        {
          "internalType": "uint256",
          "name": "tokenId",
          "type": "uint256"
        },
        {
          "internalType": "uint256",
          "name": "value",
          "type": "uint256"
        }
      ],
      "name": "royaltyInfo",
      "outputs": [
        {
          "internalType": "address",
          "name": "receiver",
          "type": "address"
        },
        {
          "internalType": "uint256",
          "name": "royaltyAmount",
          "type": "uint256"
        }
      ],
      "stateMutability": "view",
      "type": "function"
    },
    {
      "inputs": [
        {
          "internalType": "bytes4",
          "name": "interfaceId",
          "type": "bytes4"
        }
      ],
      "name": "supportsInterface",
      "outputs": [
        {
          "internalType": "bool",
          "name": "",
          "type": "bool"
        }
      ],
      "stateMutability": "view",
      "type": "function"
    }
  ],
  "bytecode": "0x608060405234801561001057600080fd5b506101dc806100206000396000f3fe608060405234801561001057600080fd5b50600436106100365760003560e01c806301ffc9a71461003b5780632a55205a14610074575b600080fd5b61005f610049366004610104565b6001600160e01b0319166301ffc9a760e01b1490565b60405190151581526020015b60405180910390f35b610087610082366004610135565b6100a6565b604080516001600160a01b03909316835260208301919091520161006b565b60008281526033602090815260408083208151808301909252546001600160a01b038116808352600160a01b90910462ffffff169282018390529291612710906100f09086610179565b6100fa9190610157565b9150509250929050565b60006020828403121561011657600080fd5b81356001600160e01b03198116811461012e57600080fd5b9392505050565b6000806040838503121561014857600080fd5b50508035926020909101359150565b60008261017457634e487b7160e01b600052601260045260246000fd5b500490565b60008160001904831182151516156101a157634e487b7160e01b600052601160045260246000fd5b50029056fea2646970667358221220927b5e6df0f43df612320ebaca51d637b8303bdf06030530c37c18eb7e3efd9e64736f6c63430008070033",
  "linkReferences": {},
  "deployedLinkReferences": {}
}