{
  "_format": "hh-sol-artifact-1",
  "contractName": "LazyNFTERC1155",
  "sourceName": "contracts/ERC1155/LazyMintERC1155.sol",
  "abi": [
    {
      "anonymous": false,
      "inputs": [
        {
          "indexed": false,
          "internalType": "address",
          "name": "newWhitelistAddress",
          "type": "address"
        }
      ],
      "name": "AddressAddedToWhitelist",
      "type": "event"
    },
    {
      "anonymous": false,
      "inputs": [
        {
          "indexed": false,
          "internalType": "address",
          "name": "removedWhitelistAddress",
          "type": "address"
        }
      ],
      "name": "AddressRemovedFromWhitelist",
      "type": "event"
    },
    {
      "anonymous": false,
      "inputs": [
        {
          "indexed": true,
          "internalType": "address",
          "name": "account",
          "type": "address"
        },
        {
          "indexed": true,
          "internalType": "address",
          "name": "operator",
          "type": "address"
        },
        {
          "indexed": false,
          "internalType": "bool",
          "name": "approved",
          "type": "bool"
        }
      ],
      "name": "ApprovalForAll",
      "type": "event"
    },
    {
      "anonymous": false,
      "inputs": [
        {
          "indexed": true,
          "internalType": "bytes32",
          "name": "role",
          "type": "bytes32"
        },
        {
          "indexed": true,
          "internalType": "bytes32",
          "name": "previousAdminRole",
          "type": "bytes32"
        },
        {
          "indexed": true,
          "internalType": "bytes32",
          "name": "newAdminRole",
          "type": "bytes32"
        }
      ],
      "name": "RoleAdminChanged",
      "type": "event"
    },
    {
      "anonymous": false,
      "inputs": [
        {
          "indexed": true,
          "internalType": "bytes32",
          "name": "role",
          "type": "bytes32"
        },
        {
          "indexed": true,
          "internalType": "address",
          "name": "account",
          "type": "address"
        },
        {
          "indexed": true,
          "internalType": "address",
          "name": "sender",
          "type": "address"
        }
      ],
      "name": "RoleGranted",
      "type": "event"
    },
    {
      "anonymous": false,
      "inputs": [
        {
          "indexed": true,
          "internalType": "bytes32",
          "name": "role",
          "type": "bytes32"
        },
        {
          "indexed": true,
          "internalType": "address",
          "name": "account",
          "type": "address"
        },
        {
          "indexed": true,
          "internalType": "address",
          "name": "sender",
          "type": "address"
        }
      ],
      "name": "RoleRevoked",
      "type": "event"
    },
    {
      "anonymous": false,
      "inputs": [
        {
          "indexed": true,
          "internalType": "address",
          "name": "operator",
          "type": "address"
        },
        {
          "indexed": true,
          "internalType": "address",
          "name": "from",
          "type": "address"
        },
        {
          "indexed": true,
          "internalType": "address",
          "name": "to",
          "type": "address"
        },
        {
          "indexed": false,
          "internalType": "uint256[]",
          "name": "ids",
          "type": "uint256[]"
        },
        {
          "indexed": false,
          "internalType": "uint256[]",
          "name": "values",
          "type": "uint256[]"
        }
      ],
      "name": "TransferBatch",
      "type": "event"
    },
    {
      "anonymous": false,
      "inputs": [
        {
          "indexed": true,
          "internalType": "address",
          "name": "operator",
          "type": "address"
        },
        {
          "indexed": true,
          "internalType": "address",
          "name": "from",
          "type": "address"
        },
        {
          "indexed": true,
          "internalType": "address",
          "name": "to",
          "type": "address"
        },
        {
          "indexed": false,
          "internalType": "uint256",
          "name": "id",
          "type": "uint256"
        },
        {
          "indexed": false,
          "internalType": "uint256",
          "name": "value",
          "type": "uint256"
        }
      ],
      "name": "TransferSingle",
      "type": "event"
    },
    {
      "anonymous": false,
      "inputs": [
        {
          "indexed": false,
          "internalType": "string",
          "name": "value",
          "type": "string"
        },
        {
          "indexed": true,
          "internalType": "uint256",
          "name": "id",
          "type": "uint256"
        }
      ],
      "name": "URI",
      "type": "event"
    },
    {
      "inputs": [],
      "name": "DEFAULT_ADMIN_ROLE",
      "outputs": [
        {
          "internalType": "bytes32",
          "name": "",
          "type": "bytes32"
        }
      ],
      "stateMutability": "view",
      "type": "function"
    },
    {
      "inputs": [],
      "name": "MINTER_ROLE",
      "outputs": [
        {
          "internalType": "bytes32",
          "name": "",
          "type": "bytes32"
        }
      ],
      "stateMutability": "view",
      "type": "function"
    },
    {
      "inputs": [
        {
          "internalType": "address",
          "name": "addr",
          "type": "address"
        }
      ],
      "name": "addAddressToWhitelist",
      "outputs": [],
      "stateMutability": "nonpayable",
      "type": "function"
    },
    {
      "inputs": [],
      "name": "availableToWithdraw",
      "outputs": [
        {
          "internalType": "uint256",
          "name": "",
          "type": "uint256"
        }
      ],
      "stateMutability": "view",
      "type": "function"
    },
    {
      "inputs": [
        {
          "internalType": "address",
          "name": "account",
          "type": "address"
        },
        {
          "internalType": "uint256",
          "name": "id",
          "type": "uint256"
        }
      ],
      "name": "balanceOf",
      "outputs": [
        {
          "internalType": "uint256",
          "name": "",
          "type": "uint256"
        }
      ],
      "stateMutability": "view",
      "type": "function"
    },
    {
      "inputs": [
        {
          "internalType": "address[]",
          "name": "accounts",
          "type": "address[]"
        },
        {
          "internalType": "uint256[]",
          "name": "ids",
          "type": "uint256[]"
        }
      ],
      "name": "balanceOfBatch",
      "outputs": [
        {
          "internalType": "uint256[]",
          "name": "",
          "type": "uint256[]"
        }
      ],
      "stateMutability": "view",
      "type": "function"
    },
    {
      "inputs": [
        {
          "internalType": "address",
          "name": "account",
          "type": "address"
        },
        {
          "internalType": "uint256",
          "name": "id",
          "type": "uint256"
        },
        {
          "internalType": "uint256",
          "name": "value",
          "type": "uint256"
        }
      ],
      "name": "burn",
      "outputs": [],
      "stateMutability": "nonpayable",
      "type": "function"
    },
    {
      "inputs": [
        {
          "internalType": "address",
          "name": "account",
          "type": "address"
        },
        {
          "internalType": "uint256[]",
          "name": "ids",
          "type": "uint256[]"
        },
        {
          "internalType": "uint256[]",
          "name": "values",
          "type": "uint256[]"
        }
      ],
      "name": "burnBatch",
      "outputs": [],
      "stateMutability": "nonpayable",
      "type": "function"
    },
    {
      "inputs": [
        {
          "internalType": "uint256",
          "name": "id",
          "type": "uint256"
        }
      ],
      "name": "exists",
      "outputs": [
        {
          "internalType": "bool",
          "name": "",
          "type": "bool"
        }
      ],
      "stateMutability": "view",
      "type": "function"
    },
    {
      "inputs": [],
      "name": "getChainID",
      "outputs": [
        {
          "internalType": "uint256",
          "name": "",
          "type": "uint256"
        }
      ],
      "stateMutability": "view",
      "type": "function"
    },
    {
      "inputs": [
        {
          "internalType": "bytes32",
          "name": "role",
          "type": "bytes32"
        }
      ],
      "name": "getRoleAdmin",
      "outputs": [
        {
          "internalType": "bytes32",
          "name": "",
          "type": "bytes32"
        }
      ],
      "stateMutability": "view",
      "type": "function"
    },
    {
      "inputs": [
        {
          "internalType": "bytes32",
          "name": "role",
          "type": "bytes32"
        },
        {
          "internalType": "address",
          "name": "account",
          "type": "address"
        }
      ],
      "name": "grantRole",
      "outputs": [],
      "stateMutability": "nonpayable",
      "type": "function"
    },
    {
      "inputs": [
        {
          "internalType": "bytes32",
          "name": "role",
          "type": "bytes32"
        },
        {
          "internalType": "address",
          "name": "account",
          "type": "address"
        }
      ],
      "name": "hasRole",
      "outputs": [
        {
          "internalType": "bool",
          "name": "",
          "type": "bool"
        }
      ],
      "stateMutability": "view",
      "type": "function"
    },
    {
      "inputs": [
        {
          "internalType": "address",
          "name": "account",
          "type": "address"
        },
        {
          "internalType": "address",
          "name": "operator",
          "type": "address"
        }
      ],
      "name": "isApprovedForAll",
      "outputs": [
        {
          "internalType": "bool",
          "name": "",
          "type": "bool"
        }
      ],
      "stateMutability": "view",
      "type": "function"
    },
    {
      "inputs": [
        {
          "internalType": "address",
          "name": "redeemer",
          "type": "address"
        },
        {
          "components": [
            {
              "internalType": "uint256",
              "name": "tokenId",
              "type": "uint256"
            },
            {
              "internalType": "uint256",
              "name": "minPrice",
              "type": "uint256"
            },
            {
              "internalType": "uint256",
              "name": "quantity",
              "type": "uint256"
            },
            {
              "internalType": "string",
              "name": "uri",
              "type": "string"
            },
            {
              "internalType": "bytes",
              "name": "signature",
              "type": "bytes"
            }
          ],
          "internalType": "struct LazyNFTERC1155.NFTVoucher",
          "name": "voucher",
          "type": "tuple"
        }
      ],
      "name": "redeem",
      "outputs": [
        {
          "internalType": "uint256",
          "name": "",
          "type": "uint256"
        }
      ],
      "stateMutability": "payable",
      "type": "function"
    },
    {
      "inputs": [
        {
          "internalType": "address",
          "name": "addr",
          "type": "address"
        }
      ],
      "name": "removeAddressFromWhitelist",
      "outputs": [],
      "stateMutability": "nonpayable",
      "type": "function"
    },
    {
      "inputs": [
        {
          "internalType": "bytes32",
          "name": "role",
          "type": "bytes32"
        },
        {
          "internalType": "address",
          "name": "account",
          "type": "address"
        }
      ],
      "name": "renounceRole",
      "outputs": [],
      "stateMutability": "nonpayable",
      "type": "function"
    },
    {
      "inputs": [
        {
          "internalType": "bytes32",
          "name": "role",
          "type": "bytes32"
        },
        {
          "internalType": "address",
          "name": "account",
          "type": "address"
        }
      ],
      "name": "revokeRole",
      "outputs": [],
      "stateMutability": "nonpayable",
      "type": "function"
    },
    {
      "inputs": [
        {
          "internalType": "address",
          "name": "from",
          "type": "address"
        },
        {
          "internalType": "address",
          "name": "to",
          "type": "address"
        },
        {
          "internalType": "uint256[]",
          "name": "ids",
          "type": "uint256[]"
        },
        {
          "internalType": "uint256[]",
          "name": "amounts",
          "type": "uint256[]"
        },
        {
          "internalType": "bytes",
          "name": "data",
          "type": "bytes"
        }
      ],
      "name": "safeBatchTransferFrom",
      "outputs": [],
      "stateMutability": "nonpayable",
      "type": "function"
    },
    {
      "inputs": [
        {
          "internalType": "address",
          "name": "from",
          "type": "address"
        },
        {
          "internalType": "address",
          "name": "to",
          "type": "address"
        },
        {
          "internalType": "uint256",
          "name": "id",
          "type": "uint256"
        },
        {
          "internalType": "uint256",
          "name": "amount",
          "type": "uint256"
        },
        {
          "internalType": "bytes",
          "name": "data",
          "type": "bytes"
        }
      ],
      "name": "safeTransferFrom",
      "outputs": [],
      "stateMutability": "nonpayable",
      "type": "function"
    },
    {
      "inputs": [
        {
          "internalType": "address",
          "name": "operator",
          "type": "address"
        },
        {
          "internalType": "bool",
          "name": "approved",
          "type": "bool"
        }
      ],
      "name": "setApprovalForAll",
      "outputs": [],
      "stateMutability": "nonpayable",
      "type": "function"
    },
    {
      "inputs": [
        {
          "internalType": "bytes4",
          "name": "interfaceId",
          "type": "bytes4"
        }
      ],
      "name": "supportsInterface",
      "outputs": [
        {
          "internalType": "bool",
          "name": "",
          "type": "bool"
        }
      ],
      "stateMutability": "view",
      "type": "function"
    },
    {
      "inputs": [
        {
          "internalType": "uint256",
          "name": "tokenId",
          "type": "uint256"
        }
      ],
      "name": "tokenURI",
      "outputs": [
        {
          "internalType": "string",
          "name": "",
          "type": "string"
        }
      ],
      "stateMutability": "view",
      "type": "function"
    },
    {
      "inputs": [
        {
          "internalType": "uint256",
          "name": "id",
          "type": "uint256"
        }
      ],
      "name": "totalSupply",
      "outputs": [
        {
          "internalType": "uint256",
          "name": "",
          "type": "uint256"
        }
      ],
      "stateMutability": "view",
      "type": "function"
    },
    {
      "inputs": [
        {
          "internalType": "uint256",
          "name": "",
          "type": "uint256"
        }
      ],
      "name": "uri",
      "outputs": [
        {
          "internalType": "string",
          "name": "",
          "type": "string"
        }
      ],
      "stateMutability": "view",
      "type": "function"
    },
    {
      "inputs": [],
      "name": "withdraw",
      "outputs": [],
      "stateMutability": "nonpayable",
      "type": "function"
    }
  ],
  "bytecode": "0x608060405234801561001057600080fd5b50613128806100206000396000f3fe6080604052600436106101805760003560e01c80636fd135bf116100d1578063c87b56dd1161008a578063e322ad2b11610064578063e322ad2b14610495578063e985e9c5146104b8578063f242432a14610501578063f5298aca1461052157600080fd5b8063c87b56dd14610421578063d539139314610441578063d547741f1461047557600080fd5b80636fd135bf1461036c5780637b9417c81461037f57806391d148541461039f578063a217fddf146103bf578063a22cb465146103d4578063bd85b039146103f457600080fd5b80632f2ff15d1161013e5780634e1273f4116101185780634e1273f4146102dd5780634f558e791461030a578063564b81ef146103395780636b20c4541461034c57600080fd5b80632f2ff15d1461028857806336568abe146102a85780633ccfd60b146102c857600080fd5b8062fdd58e1461018557806301ffc9a7146101b85780630e89341c146101e8578063248a9ca314610215578063286dd3f5146102465780632eb2c2d614610268575b600080fd5b34801561019157600080fd5b506101a56101a036600461287d565b610541565b6040519081526020015b60405180910390f35b3480156101c457600080fd5b506101d86101d33660046129e6565b6105da565b60405190151581526020016101af565b3480156101f457600080fd5b506102086102033660046129aa565b6105fa565b6040516101af9190612c1f565b34801561022157600080fd5b506101a56102303660046129aa565b600090815261012f602052604090206001015490565b34801561025257600080fd5b5061026661026136600461262a565b61068e565b005b34801561027457600080fd5b50610266610283366004612678565b610740565b34801561029457600080fd5b506102666102a33660046129c3565b6107d7565b3480156102b457600080fd5b506102666102c33660046129c3565b610803565b3480156102d457600080fd5b50610266610881565b3480156102e957600080fd5b506102fd6102f83660046128da565b610947565b6040516101af9190612bde565b34801561031657600080fd5b506101d86103253660046129aa565b600090815260976020526040902054151590565b34801561034557600080fd5b50466101a5565b34801561035857600080fd5b50610266610367366004612785565b610a70565b6101a561037a366004612834565b610ab3565b34801561038b57600080fd5b5061026661039a36600461262a565b610c3d565b3480156103ab57600080fd5b506101d86103ba3660046129c3565b610ceb565b3480156103cb57600080fd5b506101a5600081565b3480156103e057600080fd5b506102666103ef3660046127f8565b610d17565b34801561040057600080fd5b506101a561040f3660046129aa565b60009081526097602052604090205490565b34801561042d57600080fd5b5061020861043c3660046129aa565b610d22565b34801561044d57600080fd5b506101a57f9f2df0fed2c77648de5860a4cc508cd0818c85b8b8a1ab4ceeef8d981c8956a681565b34801561048157600080fd5b506102666104903660046129c3565b610ed1565b3480156104a157600080fd5b5033600090815261016360205260409020546101a5565b3480156104c457600080fd5b506101d86104d3366004612645565b6001600160a01b03918216600090815260666020908152604080832093909416825291909152205460ff1690565b34801561050d57600080fd5b5061026661051c366004612721565b610ef8565b34801561052d57600080fd5b5061026661053c3660046128a7565b610f3d565b60006001600160a01b0383166105b25760405162461bcd60e51b815260206004820152602b60248201527f455243313135353a2062616c616e636520717565727920666f7220746865207a60448201526a65726f206164647265737360a81b60648201526084015b60405180910390fd5b5060009081526065602090815260408083206001600160a01b03949094168352929052205490565b60006105e582610f80565b806105f457506105f482610fd0565b92915050565b60606067805461060990612f33565b80601f016020809104026020016040519081016040528092919081815260200182805461063590612f33565b80156106825780601f1061065757610100808354040283529160200191610682565b820191906000526020600020905b81548152906001019060200180831161066557829003601f168201915b50505050509050919050565b336000908152610161602052604090205460ff166106e75760405162461bcd60e51b815260206004820152601660248201527529b2b73232b91034b9903737ba1030b71020b236b4b760511b60448201526064016105a9565b6001600160a01b03811660008181526101616020908152604091829020805460ff1916905590519182527f535611fb62fa2a833988f283b779e417e996813e44046f521d76c17b5943b08c91015b60405180910390a150565b6001600160a01b03851633148061075c575061075c85336104d3565b6107c35760405162461bcd60e51b815260206004820152603260248201527f455243313135353a207472616e736665722063616c6c6572206973206e6f74206044820152711bdddb995c881b9bdc88185c1c1c9bdd995960721b60648201526084016105a9565b6107d08585858585610ff5565b5050505050565b600082815261012f60205260409020600101546107f481336111a2565b6107fe8383611206565b505050565b6001600160a01b03811633146108735760405162461bcd60e51b815260206004820152602f60248201527f416363657373436f6e74726f6c3a2063616e206f6e6c792072656e6f756e636560448201526e103937b632b9903337b91039b2b63360891b60648201526084016105a9565b61087d828261128d565b5050565b6108ab7f9f2df0fed2c77648de5860a4cc508cd0818c85b8b8a1ab4ceeef8d981c8956a633610ceb565b6109035760405162461bcd60e51b8152602060048201526024808201527f4f6e6c7920617574686f72697a6564206d696e746572732063616e20776974686044820152636472617760e01b60648201526084016105a9565b336000818152610163602052604080822080549083905590519091839183156108fc0291849190818181858888f193505050501580156107fe573d6000803e3d6000fd5b606081518351146109ac5760405162461bcd60e51b815260206004820152602960248201527f455243313135353a206163636f756e747320616e6420696473206c656e677468604482015268040dad2e6dac2e8c6d60bb1b60648201526084016105a9565b600083516001600160401b038111156109c7576109c7613021565b6040519080825280602002602001820160405280156109f0578160200160208202803683370190505b50905060005b8451811015610a6857610a3b858281518110610a1457610a1461300b565b6020026020010151858381518110610a2e57610a2e61300b565b6020026020010151610541565b828281518110610a4d57610a4d61300b565b6020908102919091010152610a6181612f9a565b90506109f6565b509392505050565b6001600160a01b038316331480610a8c5750610a8c83336104d3565b610aa85760405162461bcd60e51b81526004016105a990612cbe565b6107fe8383836112f5565b600080610abf83611486565b90508260200135341015610b155760405162461bcd60e51b815260206004820152601c60248201527f496e73756666696369656e742066756e647320746f2072656465656d0000000060448201526064016105a9565b610b678184356040860135610b2d6060880188612e21565b8080601f0160208091040260200160405190810160405280939291908181526020018383808284376000920191909152506114e692505050565b610bb38335610b796060860186612e21565b8080601f0160208091040260200160405190810160405280939291908181526020018383808284376000920191909152506115f892505050565b610c06818585356040870135610bcc6060890189612e21565b8080601f01602080910402602001604051908101604052809392919081815260200183838082843760009201919091525061168a92505050565b6001600160a01b0381166000908152610163602052604081208054349290610c2f908490612e8a565b909155505091359392505050565b336000908152610161602052604090205460ff16610c965760405162461bcd60e51b815260206004820152601660248201527529b2b73232b91034b9903737ba1030b71020b236b4b760511b60448201526064016105a9565b6001600160a01b03811660008181526101616020908152604091829020805460ff1916600117905590519182527f534d18c8ff24ba5980906d732f3075704749427353734fbbf05d50485643b1249101610735565b600091825261012f602090815260408084206001600160a01b0393909316845291905290205460ff1690565b61087d3383836117ab565b600081815260976020526040902054606090610d9b5760405162461bcd60e51b815260206004820152603260248201527f4552433131353555524953746f726167653a2055524920717565727920666f72604482015271103737b732bc34b9ba32b73a103a37b5b2b760711b60648201526084016105a9565b600082815260c9602052604081208054610db490612f33565b80601f0160208091040260200160405190810160405280929190818152602001828054610de090612f33565b8015610e2d5780601f10610e0257610100808354040283529160200191610e2d565b820191906000526020600020905b815481529060010190602001808311610e1057829003601f168201915b505050505090506000610e4b60408051602081019091526000815290565b9050805160001415610e5e575092915050565b815115610e90578082604051602001610e78929190612a97565b60405160208183030381529060405292505050919050565b6000815111610eae5760405180602001604052806000815250610ec9565b80610eb88561188c565b604051602001610e78929190612a97565b949350505050565b600082815261012f6020526040902060010154610eee81336111a2565b6107fe838361128d565b6001600160a01b038516331480610f145750610f1485336104d3565b610f305760405162461bcd60e51b81526004016105a990612cbe565b6107d0858585858561168a565b6001600160a01b038316331480610f595750610f5983336104d3565b610f755760405162461bcd60e51b81526004016105a990612cbe565b6107fe838383611989565b60006001600160e01b03198216636cdb3d1360e11b1480610fb157506001600160e01b031982166303a24d0760e21b145b806105f457506301ffc9a760e01b6001600160e01b03198316146105f4565b60006001600160e01b03198216637965db0b60e01b14806105f457506105f482610f80565b81518351146110165760405162461bcd60e51b81526004016105a990612dd9565b6001600160a01b03841661103c5760405162461bcd60e51b81526004016105a990612d07565b3361104b818787878787611a8e565b60005b845181101561113457600085828151811061106b5761106b61300b565b6020026020010151905060008583815181106110895761108961300b565b60209081029190910181015160008481526065835260408082206001600160a01b038e1683529093529190912054909150818110156110da5760405162461bcd60e51b81526004016105a990612d8f565b60008381526065602090815260408083206001600160a01b038e8116855292528083208585039055908b16825281208054849290611119908490612e8a565b925050819055505050508061112d90612f9a565b905061104e565b50846001600160a01b0316866001600160a01b0316826001600160a01b03167f4a39dc06d4c0dbc64b70af90fd698a233a518aa5d07e595d983b8c0526c8f7fb8787604051611184929190612bf1565b60405180910390a461119a818787878787611b9a565b505050505050565b6111ac8282610ceb565b61087d576111c4816001600160a01b03166014611d05565b6111cf836020611d05565b6040516020016111e0929190612ac6565b60408051601f198184030181529082905262461bcd60e51b82526105a991600401612c1f565b6112108282610ceb565b61087d57600082815261012f602090815260408083206001600160a01b03851684529091529020805460ff191660011790556112493390565b6001600160a01b0316816001600160a01b0316837f2f8788117e7eff1d82e926ec794901d17c78024a50270940304540a733656f0d60405160405180910390a45050565b6112978282610ceb565b1561087d57600082815261012f602090815260408083206001600160a01b0385168085529252808320805460ff1916905551339285917ff6391f5c32d9c69d2a47ea670b442974b53935d1edc7fd64eb21e047a839171b9190a45050565b6001600160a01b03831661131b5760405162461bcd60e51b81526004016105a990612d4c565b805182511461133c5760405162461bcd60e51b81526004016105a990612dd9565b600033905061135f81856000868660405180602001604052806000815250611a8e565b60005b835181101561142757600084828151811061137f5761137f61300b565b60200260200101519050600084838151811061139d5761139d61300b565b60209081029190910181015160008481526065835260408082206001600160a01b038c1683529093529190912054909150818110156113ee5760405162461bcd60e51b81526004016105a990612c7a565b60009283526065602090815260408085206001600160a01b038b168652909152909220910390558061141f81612f9a565b915050611362565b5060006001600160a01b0316846001600160a01b0316826001600160a01b03167f4a39dc06d4c0dbc64b70af90fd698a233a518aa5d07e595d983b8c0526c8f7fb8686604051611478929190612bf1565b60405180910390a450505050565b60008061149283611ea0565b90506114df816114a56080860186612e21565b8080601f016020809104026020016040519081016040528093929190818152602001838380828437600092019190915250611f3892505050565b9392505050565b6001600160a01b0384166115465760405162461bcd60e51b815260206004820152602160248201527f455243313135353a206d696e7420746f20746865207a65726f206164647265736044820152607360f81b60648201526084016105a9565b336115668160008761155788611f54565b61156088611f54565b87611a8e565b60008481526065602090815260408083206001600160a01b038916845290915281208054859290611598908490612e8a565b909155505060408051858152602081018590526001600160a01b0380881692600092918516917fc3d58168c5ae7397731d063d5bbf3d657854427343f4c083240f7aacaa2d0f62910160405180910390a46107d081600087878787611f9f565b60008281526097602052604090205461166b5760405162461bcd60e51b815260206004820152602f60248201527f4552433131353555524953746f726167653a2055524920736574206f66206e6f60448201526e3732bc34b9ba32b73a103a37b5b2b760891b60648201526084016105a9565b600082815260c96020908152604090912082516107fe9284019061248b565b6001600160a01b0384166116b05760405162461bcd60e51b81526004016105a990612d07565b336116c081878761155788611f54565b60008481526065602090815260408083206001600160a01b038a168452909152902054838110156117035760405162461bcd60e51b81526004016105a990612d8f565b60008581526065602090815260408083206001600160a01b038b8116855292528083208785039055908816825281208054869290611742908490612e8a565b909155505060408051868152602081018690526001600160a01b03808916928a821692918616917fc3d58168c5ae7397731d063d5bbf3d657854427343f4c083240f7aacaa2d0f62910160405180910390a46117a2828888888888611f9f565b50505050505050565b816001600160a01b0316836001600160a01b0316141561181f5760405162461bcd60e51b815260206004820152602960248201527f455243313135353a2073657474696e6720617070726f76616c20737461747573604482015268103337b91039b2b63360b91b60648201526084016105a9565b6001600160a01b03838116600081815260666020908152604080832094871680845294825291829020805460ff191686151590811790915591519182527f17307eab39ab6107e8899845ad3d59bd9653f200f220920489ca2b5937696c31910160405180910390a3505050565b6060816118b05750506040805180820190915260018152600360fc1b602082015290565b8160005b81156118da57806118c481612f9a565b91506118d39050600a83612ea2565b91506118b4565b6000816001600160401b038111156118f4576118f4613021565b6040519080825280601f01601f19166020018201604052801561191e576020820181803683370190505b5090505b8415610ec957611933600183612ed5565b9150611940600a86612fb5565b61194b906030612e8a565b60f81b8183815181106119605761196061300b565b60200101906001600160f81b031916908160001a905350611982600a86612ea2565b9450611922565b6001600160a01b0383166119af5760405162461bcd60e51b81526004016105a990612d4c565b336119de818560006119c087611f54565b6119c987611f54565b60405180602001604052806000815250611a8e565b60008381526065602090815260408083206001600160a01b038816845290915290205482811015611a215760405162461bcd60e51b81526004016105a990612c7a565b60008481526065602090815260408083206001600160a01b03898116808652918452828520888703905582518981529384018890529092908616917fc3d58168c5ae7397731d063d5bbf3d657854427343f4c083240f7aacaa2d0f62910160405180910390a45050505050565b6001600160a01b038516611b155760005b8351811015611b1357828181518110611aba57611aba61300b565b602002602001015160976000868481518110611ad857611ad861300b565b602002602001015181526020019081526020016000206000828254611afd9190612e8a565b90915550611b0c905081612f9a565b9050611a9f565b505b6001600160a01b03841661119a5760005b83518110156117a257828181518110611b4157611b4161300b565b602002602001015160976000868481518110611b5f57611b5f61300b565b602002602001015181526020019081526020016000206000828254611b849190612ed5565b90915550611b93905081612f9a565b9050611b26565b6001600160a01b0384163b1561119a5760405163bc197c8160e01b81526001600160a01b0385169063bc197c8190611bde9089908990889088908890600401612b3b565b602060405180830381600087803b158015611bf857600080fd5b505af1925050508015611c28575060408051601f3d908101601f19168201909252611c2591810190612a03565b60015b611cd557611c34613037565b806308c379a01415611c6e5750611c49613053565b80611c545750611c70565b8060405162461bcd60e51b81526004016105a99190612c1f565b505b60405162461bcd60e51b815260206004820152603460248201527f455243313135353a207472616e7366657220746f206e6f6e20455243313135356044820152732932b1b2b4bb32b91034b6b83632b6b2b73a32b960611b60648201526084016105a9565b6001600160e01b0319811663bc197c8160e01b146117a25760405162461bcd60e51b81526004016105a990612c32565b60606000611d14836002612eb6565b611d1f906002612e8a565b6001600160401b03811115611d3657611d36613021565b6040519080825280601f01601f191660200182016040528015611d60576020820181803683370190505b509050600360fc1b81600081518110611d7b57611d7b61300b565b60200101906001600160f81b031916908160001a905350600f60fb1b81600181518110611daa57611daa61300b565b60200101906001600160f81b031916908160001a9053506000611dce846002612eb6565b611dd9906001612e8a565b90505b6001811115611e51576f181899199a1a9b1b9c1cb0b131b232b360811b85600f1660108110611e0d57611e0d61300b565b1a60f81b828281518110611e2357611e2361300b565b60200101906001600160f81b031916908160001a90535060049490941c93611e4a81612f1c565b9050611ddc565b5083156114df5760405162461bcd60e51b815260206004820181905260248201527f537472696e67733a20686578206c656e67746820696e73756666696369656e7460448201526064016105a9565b60006105f47f6316f9ddd4d59a364f3b95c26bab9d392c3380ace0fff15e91ed76f0d8bcd15a833560208501356040860135611edf6060880188612e21565b604051611eed929190612a87565b6040805191829003822060208301969096528101939093526060830191909152608082015260a081019190915260c00160405160208183030381529060405280519060200120612069565b6000806000611f4785856120b7565b91509150610a6881612127565b60408051600180825281830190925260609160009190602080830190803683370190505090508281600081518110611f8e57611f8e61300b565b602090810291909101015292915050565b6001600160a01b0384163b1561119a5760405163f23a6e6160e01b81526001600160a01b0385169063f23a6e6190611fe39089908990889088908890600401612b99565b602060405180830381600087803b158015611ffd57600080fd5b505af192505050801561202d575060408051601f3d908101601f1916820190925261202a91810190612a03565b60015b61203957611c34613037565b6001600160e01b0319811663f23a6e6160e01b146117a25760405162461bcd60e51b81526004016105a990612c32565b60006105f46120766122e5565b8360405161190160f01b6020820152602281018390526042810182905260009060620160405160208183030381529060405280519060200120905092915050565b6000808251604114156120ee5760208301516040840151606085015160001a6120e287828585612365565b94509450505050612120565b825160401415612118576020830151604084015161210d868383612452565b935093505050612120565b506000905060025b9250929050565b600081600481111561213b5761213b612ff5565b14156121445750565b600181600481111561215857612158612ff5565b14156121a65760405162461bcd60e51b815260206004820152601860248201527f45434453413a20696e76616c6964207369676e6174757265000000000000000060448201526064016105a9565b60028160048111156121ba576121ba612ff5565b14156122085760405162461bcd60e51b815260206004820152601f60248201527f45434453413a20696e76616c6964207369676e6174757265206c656e6774680060448201526064016105a9565b600381600481111561221c5761221c612ff5565b14156122755760405162461bcd60e51b815260206004820152602260248201527f45434453413a20696e76616c6964207369676e6174757265202773272076616c604482015261756560f01b60648201526084016105a9565b600481600481111561228957612289612ff5565b14156122e25760405162461bcd60e51b815260206004820152602260248201527f45434453413a20696e76616c6964207369676e6174757265202776272076616c604482015261756560f01b60648201526084016105a9565b50565b60006123607f8b73c3c69bb8fe3d512ecc4cf759cc79239f7b179b0ffacaa9a75d522b39400f61231460fb5490565b60fc546040805160208101859052908101839052606081018290524660808201523060a082015260009060c0016040516020818303038152906040528051906020012090509392505050565b905090565b6000807f7fffffffffffffffffffffffffffffff5d576e7357a4501ddfe92f46681b20a083111561239c5750600090506003612449565b8460ff16601b141580156123b457508460ff16601c14155b156123c55750600090506004612449565b6040805160008082526020820180845289905260ff881692820192909252606081018690526080810185905260019060a0016020604051602081039080840390855afa158015612419573d6000803e3d6000fd5b5050604051601f1901519150506001600160a01b03811661244257600060019250925050612449565b9150600090505b94509492505050565b6000806001600160ff1b0383168161246f60ff86901c601b612e8a565b905061247d87828885612365565b935093505050935093915050565b82805461249790612f33565b90600052602060002090601f0160209004810192826124b957600085556124ff565b82601f106124d257805160ff19168380011785556124ff565b828001600101855582156124ff579182015b828111156124ff5782518255916020019190600101906124e4565b5061250b92915061250f565b5090565b5b8082111561250b5760008155600101612510565b80356001600160a01b038116811461253b57600080fd5b919050565b600082601f83011261255157600080fd5b8135602061255e82612e67565b60405161256b8282612f6e565b8381528281019150858301600585901b8701840188101561258b57600080fd5b60005b858110156125aa5781358452928401929084019060010161258e565b5090979650505050505050565b600082601f8301126125c857600080fd5b81356001600160401b038111156125e1576125e1613021565b6040516125f8601f8301601f191660200182612f6e565b81815284602083860101111561260d57600080fd5b816020850160208301376000918101602001919091529392505050565b60006020828403121561263c57600080fd5b6114df82612524565b6000806040838503121561265857600080fd5b61266183612524565b915061266f60208401612524565b90509250929050565b600080600080600060a0868803121561269057600080fd5b61269986612524565b94506126a760208701612524565b935060408601356001600160401b03808211156126c357600080fd5b6126cf89838a01612540565b945060608801359150808211156126e557600080fd5b6126f189838a01612540565b9350608088013591508082111561270757600080fd5b50612714888289016125b7565b9150509295509295909350565b600080600080600060a0868803121561273957600080fd5b61274286612524565b945061275060208701612524565b9350604086013592506060860135915060808601356001600160401b0381111561277957600080fd5b612714888289016125b7565b60008060006060848603121561279a57600080fd5b6127a384612524565b925060208401356001600160401b03808211156127bf57600080fd5b6127cb87838801612540565b935060408601359150808211156127e157600080fd5b506127ee86828701612540565b9150509250925092565b6000806040838503121561280b57600080fd5b61281483612524565b91506020830135801515811461282957600080fd5b809150509250929050565b6000806040838503121561284757600080fd5b61285083612524565b915060208301356001600160401b0381111561286b57600080fd5b830160a0818603121561282957600080fd5b6000806040838503121561289057600080fd5b61289983612524565b946020939093013593505050565b6000806000606084860312156128bc57600080fd5b6128c584612524565b95602085013595506040909401359392505050565b600080604083850312156128ed57600080fd5b82356001600160401b038082111561290457600080fd5b818501915085601f83011261291857600080fd5b8135602061292582612e67565b6040516129328282612f6e565b8381528281019150858301600585901b870184018b101561295257600080fd5b600096505b8487101561297c5761296881612524565b835260019690960195918301918301612957565b509650508601359250508082111561299357600080fd5b506129a085828601612540565b9150509250929050565b6000602082840312156129bc57600080fd5b5035919050565b600080604083850312156129d657600080fd5b8235915061266f60208401612524565b6000602082840312156129f857600080fd5b81356114df816130dc565b600060208284031215612a1557600080fd5b81516114df816130dc565b600081518084526020808501945080840160005b83811015612a5057815187529582019590820190600101612a34565b509495945050505050565b60008151808452612a73816020860160208601612eec565b601f01601f19169290920160200192915050565b8183823760009101908152919050565b60008351612aa9818460208801612eec565b835190830190612abd818360208801612eec565b01949350505050565b7f416363657373436f6e74726f6c3a206163636f756e7420000000000000000000815260008351612afe816017850160208801612eec565b7001034b99036b4b9b9b4b733903937b6329607d1b6017918401918201528351612b2f816028840160208801612eec565b01602801949350505050565b6001600160a01b0386811682528516602082015260a060408201819052600090612b6790830186612a20565b8281036060840152612b798186612a20565b90508281036080840152612b8d8185612a5b565b98975050505050505050565b6001600160a01b03868116825285166020820152604081018490526060810183905260a060808201819052600090612bd390830184612a5b565b979650505050505050565b6020815260006114df6020830184612a20565b604081526000612c046040830185612a20565b8281036020840152612c168185612a20565b95945050505050565b6020815260006114df6020830184612a5b565b60208082526028908201527f455243313135353a204552433131353552656365697665722072656a656374656040820152676420746f6b656e7360c01b606082015260800190565b60208082526024908201527f455243313135353a206275726e20616d6f756e7420657863656564732062616c604082015263616e636560e01b606082015260800190565b60208082526029908201527f455243313135353a2063616c6c6572206973206e6f74206f776e6572206e6f7260408201526808185c1c1c9bdd995960ba1b606082015260800190565b60208082526025908201527f455243313135353a207472616e7366657220746f20746865207a65726f206164604082015264647265737360d81b606082015260800190565b60208082526023908201527f455243313135353a206275726e2066726f6d20746865207a65726f206164647260408201526265737360e81b606082015260800190565b6020808252602a908201527f455243313135353a20696e73756666696369656e742062616c616e636520666f60408201526939103a3930b739b332b960b11b606082015260800190565b60208082526028908201527f455243313135353a2069647320616e6420616d6f756e7473206c656e677468206040820152670dad2e6dac2e8c6d60c31b606082015260800190565b6000808335601e19843603018112612e3857600080fd5b8301803591506001600160401b03821115612e5257600080fd5b60200191503681900382131561212057600080fd5b60006001600160401b03821115612e8057612e80613021565b5060051b60200190565b60008219821115612e9d57612e9d612fc9565b500190565b600082612eb157612eb1612fdf565b500490565b6000816000190483118215151615612ed057612ed0612fc9565b500290565b600082821015612ee757612ee7612fc9565b500390565b60005b83811015612f07578181015183820152602001612eef565b83811115612f16576000848401525b50505050565b600081612f2b57612f2b612fc9565b506000190190565b600181811c90821680612f4757607f821691505b60208210811415612f6857634e487b7160e01b600052602260045260246000fd5b50919050565b601f8201601f191681016001600160401b0381118282101715612f9357612f93613021565b6040525050565b6000600019821415612fae57612fae612fc9565b5060010190565b600082612fc457612fc4612fdf565b500690565b634e487b7160e01b600052601160045260246000fd5b634e487b7160e01b600052601260045260246000fd5b634e487b7160e01b600052602160045260246000fd5b634e487b7160e01b600052603260045260246000fd5b634e487b7160e01b600052604160045260246000fd5b600060033d11156130505760046000803e5060005160e01c5b90565b600060443d10156130615790565b6040516003193d81016004833e81513d6001600160401b03816024840111818411171561309057505050505090565b82850191508151818111156130a85750505050505090565b843d87010160208285010111156130c25750505050505090565b6130d160208286010187612f6e565b509095945050505050565b6001600160e01b0319811681146122e257600080fdfea264697066735822122018aa3c96e53ecbde37022f0bf46711bbade45d595a6465960eaa1a4eed3cc54a64736f6c63430008070033",
  "linkReferences": {},
  "deployedLinkReferences": {}
}