{
  "_format": "hh-sol-artifact-1",
  "contractName": "GenericERC1155",
  "sourceName": "contracts/ERC1155/ERC1155.sol",
  "abi": [
    {
      "anonymous": false,
      "inputs": [
        {
          "indexed": false,
          "internalType": "address",
          "name": "newWhitelistAddress",
          "type": "address"
        }
      ],
      "name": "AddressAddedToWhitelist",
      "type": "event"
    },
    {
      "anonymous": false,
      "inputs": [
        {
          "indexed": false,
          "internalType": "address",
          "name": "removedWhitelistAddress",
          "type": "address"
        }
      ],
      "name": "AddressRemovedFromWhitelist",
      "type": "event"
    },
    {
      "anonymous": false,
      "inputs": [
        {
          "indexed": true,
          "internalType": "address",
          "name": "account",
          "type": "address"
        },
        {
          "indexed": true,
          "internalType": "address",
          "name": "operator",
          "type": "address"
        },
        {
          "indexed": false,
          "internalType": "bool",
          "name": "approved",
          "type": "bool"
        }
      ],
      "name": "ApprovalForAll",
      "type": "event"
    },
    {
      "anonymous": false,
      "inputs": [
        {
          "indexed": true,
          "internalType": "bytes32",
          "name": "role",
          "type": "bytes32"
        },
        {
          "indexed": true,
          "internalType": "bytes32",
          "name": "previousAdminRole",
          "type": "bytes32"
        },
        {
          "indexed": true,
          "internalType": "bytes32",
          "name": "newAdminRole",
          "type": "bytes32"
        }
      ],
      "name": "RoleAdminChanged",
      "type": "event"
    },
    {
      "anonymous": false,
      "inputs": [
        {
          "indexed": true,
          "internalType": "bytes32",
          "name": "role",
          "type": "bytes32"
        },
        {
          "indexed": true,
          "internalType": "address",
          "name": "account",
          "type": "address"
        },
        {
          "indexed": true,
          "internalType": "address",
          "name": "sender",
          "type": "address"
        }
      ],
      "name": "RoleGranted",
      "type": "event"
    },
    {
      "anonymous": false,
      "inputs": [
        {
          "indexed": true,
          "internalType": "bytes32",
          "name": "role",
          "type": "bytes32"
        },
        {
          "indexed": true,
          "internalType": "address",
          "name": "account",
          "type": "address"
        },
        {
          "indexed": true,
          "internalType": "address",
          "name": "sender",
          "type": "address"
        }
      ],
      "name": "RoleRevoked",
      "type": "event"
    },
    {
      "anonymous": false,
      "inputs": [
        {
          "indexed": false,
          "internalType": "uint256",
          "name": "_tokenId",
          "type": "uint256"
        },
        {
          "indexed": false,
          "internalType": "bytes",
          "name": "_tokenURI",
          "type": "bytes"
        },
        {
          "indexed": false,
          "internalType": "uint256",
          "name": "_initialSupply",
          "type": "uint256"
        },
        {
          "indexed": false,
          "internalType": "address",
          "name": "creator",
          "type": "address"
        }
      ],
      "name": "TokenCreated",
      "type": "event"
    },
    {
      "anonymous": false,
      "inputs": [
        {
          "indexed": true,
          "internalType": "address",
          "name": "operator",
          "type": "address"
        },
        {
          "indexed": true,
          "internalType": "address",
          "name": "from",
          "type": "address"
        },
        {
          "indexed": true,
          "internalType": "address",
          "name": "to",
          "type": "address"
        },
        {
          "indexed": false,
          "internalType": "uint256[]",
          "name": "ids",
          "type": "uint256[]"
        },
        {
          "indexed": false,
          "internalType": "uint256[]",
          "name": "values",
          "type": "uint256[]"
        }
      ],
      "name": "TransferBatch",
      "type": "event"
    },
    {
      "anonymous": false,
      "inputs": [
        {
          "indexed": true,
          "internalType": "address",
          "name": "operator",
          "type": "address"
        },
        {
          "indexed": true,
          "internalType": "address",
          "name": "from",
          "type": "address"
        },
        {
          "indexed": true,
          "internalType": "address",
          "name": "to",
          "type": "address"
        },
        {
          "indexed": false,
          "internalType": "uint256",
          "name": "id",
          "type": "uint256"
        },
        {
          "indexed": false,
          "internalType": "uint256",
          "name": "value",
          "type": "uint256"
        }
      ],
      "name": "TransferSingle",
      "type": "event"
    },
    {
      "anonymous": false,
      "inputs": [
        {
          "indexed": false,
          "internalType": "string",
          "name": "value",
          "type": "string"
        },
        {
          "indexed": true,
          "internalType": "uint256",
          "name": "id",
          "type": "uint256"
        }
      ],
      "name": "URI",
      "type": "event"
    },
    {
      "inputs": [],
      "name": "DEFAULT_ADMIN_ROLE",
      "outputs": [
        {
          "internalType": "bytes32",
          "name": "",
          "type": "bytes32"
        }
      ],
      "stateMutability": "view",
      "type": "function"
    },
    {
      "inputs": [],
      "name": "MINTER_ROLE",
      "outputs": [
        {
          "internalType": "bytes32",
          "name": "",
          "type": "bytes32"
        }
      ],
      "stateMutability": "view",
      "type": "function"
    },
    {
      "inputs": [
        {
          "internalType": "address",
          "name": "addr",
          "type": "address"
        }
      ],
      "name": "addAddressToWhitelist",
      "outputs": [],
      "stateMutability": "nonpayable",
      "type": "function"
    },
    {
      "inputs": [],
      "name": "availableToWithdraw",
      "outputs": [
        {
          "internalType": "uint256",
          "name": "",
          "type": "uint256"
        }
      ],
      "stateMutability": "view",
      "type": "function"
    },
    {
      "inputs": [
        {
          "internalType": "address",
          "name": "account",
          "type": "address"
        },
        {
          "internalType": "uint256",
          "name": "id",
          "type": "uint256"
        }
      ],
      "name": "balanceOf",
      "outputs": [
        {
          "internalType": "uint256",
          "name": "",
          "type": "uint256"
        }
      ],
      "stateMutability": "view",
      "type": "function"
    },
    {
      "inputs": [
        {
          "internalType": "address[]",
          "name": "accounts",
          "type": "address[]"
        },
        {
          "internalType": "uint256[]",
          "name": "ids",
          "type": "uint256[]"
        }
      ],
      "name": "balanceOfBatch",
      "outputs": [
        {
          "internalType": "uint256[]",
          "name": "",
          "type": "uint256[]"
        }
      ],
      "stateMutability": "view",
      "type": "function"
    },
    {
      "inputs": [
        {
          "internalType": "address",
          "name": "account",
          "type": "address"
        },
        {
          "internalType": "uint256",
          "name": "id",
          "type": "uint256"
        },
        {
          "internalType": "uint256",
          "name": "value",
          "type": "uint256"
        }
      ],
      "name": "burn",
      "outputs": [],
      "stateMutability": "nonpayable",
      "type": "function"
    },
    {
      "inputs": [
        {
          "internalType": "address",
          "name": "account",
          "type": "address"
        },
        {
          "internalType": "uint256[]",
          "name": "ids",
          "type": "uint256[]"
        },
        {
          "internalType": "uint256[]",
          "name": "values",
          "type": "uint256[]"
        }
      ],
      "name": "burnBatch",
      "outputs": [],
      "stateMutability": "nonpayable",
      "type": "function"
    },
    {
      "inputs": [
        {
          "internalType": "string",
          "name": "_tokenURI",
          "type": "string"
        },
        {
          "internalType": "uint256",
          "name": "_initialSupply",
          "type": "uint256"
        }
      ],
      "name": "createToken",
      "outputs": [
        {
          "internalType": "uint256",
          "name": "tokenId",
          "type": "uint256"
        }
      ],
      "stateMutability": "nonpayable",
      "type": "function"
    },
    {
      "inputs": [
        {
          "internalType": "uint256",
          "name": "id",
          "type": "uint256"
        }
      ],
      "name": "exists",
      "outputs": [
        {
          "internalType": "bool",
          "name": "",
          "type": "bool"
        }
      ],
      "stateMutability": "view",
      "type": "function"
    },
    {
      "inputs": [],
      "name": "getChainID",
      "outputs": [
        {
          "internalType": "uint256",
          "name": "",
          "type": "uint256"
        }
      ],
      "stateMutability": "view",
      "type": "function"
    },
    {
      "inputs": [
        {
          "internalType": "bytes32",
          "name": "role",
          "type": "bytes32"
        }
      ],
      "name": "getRoleAdmin",
      "outputs": [
        {
          "internalType": "bytes32",
          "name": "",
          "type": "bytes32"
        }
      ],
      "stateMutability": "view",
      "type": "function"
    },
    {
      "inputs": [
        {
          "internalType": "bytes32",
          "name": "role",
          "type": "bytes32"
        },
        {
          "internalType": "address",
          "name": "account",
          "type": "address"
        }
      ],
      "name": "grantRole",
      "outputs": [],
      "stateMutability": "nonpayable",
      "type": "function"
    },
    {
      "inputs": [
        {
          "internalType": "bytes32",
          "name": "role",
          "type": "bytes32"
        },
        {
          "internalType": "address",
          "name": "account",
          "type": "address"
        }
      ],
      "name": "hasRole",
      "outputs": [
        {
          "internalType": "bool",
          "name": "",
          "type": "bool"
        }
      ],
      "stateMutability": "view",
      "type": "function"
    },
    {
      "inputs": [
        {
          "internalType": "string",
          "name": "_newBaseURI",
          "type": "string"
        },
        {
          "internalType": "string",
          "name": "signDomain",
          "type": "string"
        },
        {
          "internalType": "string",
          "name": "signVersion",
          "type": "string"
        },
        {
          "internalType": "address payable",
          "name": "minter",
          "type": "address"
        },
        {
          "internalType": "address[]",
          "name": "_whitelistAddresses",
          "type": "address[]"
        }
      ],
      "name": "initialize",
      "outputs": [],
      "stateMutability": "nonpayable",
      "type": "function"
    },
    {
      "inputs": [
        {
          "internalType": "address",
          "name": "account",
          "type": "address"
        },
        {
          "internalType": "address",
          "name": "operator",
          "type": "address"
        }
      ],
      "name": "isApprovedForAll",
      "outputs": [
        {
          "internalType": "bool",
          "name": "",
          "type": "bool"
        }
      ],
      "stateMutability": "view",
      "type": "function"
    },
    {
      "inputs": [
        {
          "internalType": "address",
          "name": "redeemer",
          "type": "address"
        },
        {
          "components": [
            {
              "internalType": "uint256",
              "name": "tokenId",
              "type": "uint256"
            },
            {
              "internalType": "uint256",
              "name": "minPrice",
              "type": "uint256"
            },
            {
              "internalType": "uint256",
              "name": "quantity",
              "type": "uint256"
            },
            {
              "internalType": "string",
              "name": "uri",
              "type": "string"
            },
            {
              "internalType": "bytes",
              "name": "signature",
              "type": "bytes"
            }
          ],
          "internalType": "struct LazyNFTERC1155.NFTVoucher",
          "name": "voucher",
          "type": "tuple"
        }
      ],
      "name": "redeem",
      "outputs": [
        {
          "internalType": "uint256",
          "name": "",
          "type": "uint256"
        }
      ],
      "stateMutability": "payable",
      "type": "function"
    },
    {
      "inputs": [
        {
          "internalType": "address",
          "name": "addr",
          "type": "address"
        }
      ],
      "name": "removeAddressFromWhitelist",
      "outputs": [],
      "stateMutability": "nonpayable",
      "type": "function"
    },
    {
      "inputs": [
        {
          "internalType": "bytes32",
          "name": "role",
          "type": "bytes32"
        },
        {
          "internalType": "address",
          "name": "account",
          "type": "address"
        }
      ],
      "name": "renounceRole",
      "outputs": [],
      "stateMutability": "nonpayable",
      "type": "function"
    },
    {
      "inputs": [
        {
          "internalType": "bytes32",
          "name": "role",
          "type": "bytes32"
        },
        {
          "internalType": "address",
          "name": "account",
          "type": "address"
        }
      ],
      "name": "revokeRole",
      "outputs": [],
      "stateMutability": "nonpayable",
      "type": "function"
    },
    {
      "inputs": [
        {
          "internalType": "uint256",
          "name": "tokenId",
          "type": "uint256"
        },
        {
          "internalType": "uint256",
          "name": "value",
          "type": "uint256"
        }
      ],
      "name": "royaltyInfo",
      "outputs": [
        {
          "internalType": "address",
          "name": "receiver",
          "type": "address"
        },
        {
          "internalType": "uint256",
          "name": "royaltyAmount",
          "type": "uint256"
        }
      ],
      "stateMutability": "view",
      "type": "function"
    },
    {
      "inputs": [
        {
          "internalType": "address",
          "name": "from",
          "type": "address"
        },
        {
          "internalType": "address",
          "name": "to",
          "type": "address"
        },
        {
          "internalType": "uint256[]",
          "name": "ids",
          "type": "uint256[]"
        },
        {
          "internalType": "uint256[]",
          "name": "amounts",
          "type": "uint256[]"
        },
        {
          "internalType": "bytes",
          "name": "data",
          "type": "bytes"
        }
      ],
      "name": "safeBatchTransferFrom",
      "outputs": [],
      "stateMutability": "nonpayable",
      "type": "function"
    },
    {
      "inputs": [
        {
          "internalType": "address",
          "name": "from",
          "type": "address"
        },
        {
          "internalType": "address",
          "name": "to",
          "type": "address"
        },
        {
          "internalType": "uint256",
          "name": "id",
          "type": "uint256"
        },
        {
          "internalType": "uint256",
          "name": "amount",
          "type": "uint256"
        },
        {
          "internalType": "bytes",
          "name": "data",
          "type": "bytes"
        }
      ],
      "name": "safeTransferFrom",
      "outputs": [],
      "stateMutability": "nonpayable",
      "type": "function"
    },
    {
      "inputs": [
        {
          "internalType": "address",
          "name": "operator",
          "type": "address"
        },
        {
          "internalType": "bool",
          "name": "approved",
          "type": "bool"
        }
      ],
      "name": "setApprovalForAll",
      "outputs": [],
      "stateMutability": "nonpayable",
      "type": "function"
    },
    {
      "inputs": [
        {
          "internalType": "bytes4",
          "name": "interfaceId",
          "type": "bytes4"
        }
      ],
      "name": "supportsInterface",
      "outputs": [
        {
          "internalType": "bool",
          "name": "",
          "type": "bool"
        }
      ],
      "stateMutability": "view",
      "type": "function"
    },
    {
      "inputs": [
        {
          "internalType": "uint256",
          "name": "tokenId",
          "type": "uint256"
        }
      ],
      "name": "tokenURI",
      "outputs": [
        {
          "internalType": "string",
          "name": "",
          "type": "string"
        }
      ],
      "stateMutability": "view",
      "type": "function"
    },
    {
      "inputs": [
        {
          "internalType": "uint256",
          "name": "id",
          "type": "uint256"
        }
      ],
      "name": "totalSupply",
      "outputs": [
        {
          "internalType": "uint256",
          "name": "",
          "type": "uint256"
        }
      ],
      "stateMutability": "view",
      "type": "function"
    },
    {
      "inputs": [
        {
          "internalType": "uint256",
          "name": "",
          "type": "uint256"
        }
      ],
      "name": "uri",
      "outputs": [
        {
          "internalType": "string",
          "name": "",
          "type": "string"
        }
      ],
      "stateMutability": "view",
      "type": "function"
    },
    {
      "inputs": [],
      "name": "withdraw",
      "outputs": [],
      "stateMutability": "nonpayable",
      "type": "function"
    }
  ],
  "bytecode": "0x608060405234801561001057600080fd5b50613913806100206000396000f3fe6080604052600436106101c15760003560e01c80636b20c454116100f7578063bd85b03911610095578063e322ad2b11610064578063e322ad2b14610555578063e985e9c514610578578063f242432a146105c1578063f5298aca146105e157600080fd5b8063bd85b039146104b4578063c87b56dd146104e1578063d539139314610501578063d547741f1461053557600080fd5b80637b9417c8116100d15780637b9417c81461043f57806391d148541461045f578063a217fddf1461047f578063a22cb4651461049457600080fd5b80636b20c454146103ec5780636fd135bf1461040c57806372b3b6201461041f57600080fd5b80632eb2c2d6116101645780633ccfd60b1161013e5780633ccfd60b146103685780634e1273f41461037d5780634f558e79146103aa578063564b81ef146103d957600080fd5b80632eb2c2d6146103085780632f2ff15d1461032857806336568abe1461034857600080fd5b8063248a9ca3116101a0578063248a9ca314610256578063286dd3f5146102875780632a55205a146102a95780632cd0213f146102e857600080fd5b8062fdd58e146101c657806301ffc9a7146101f95780630e89341c14610229575b600080fd5b3480156101d257600080fd5b506101e66101e1366004612ed7565b610601565b6040519081526020015b60405180910390f35b34801561020557600080fd5b50610219610214366004612fcf565b61069a565b60405190151581526020016101f0565b34801561023557600080fd5b50610249610244366004612f91565b6106c5565b6040516101f09190613322565b34801561026257600080fd5b506101e6610271366004612f91565b600090815261012f602052604090206001015490565b34801561029357600080fd5b506102a76102a2366004612c79565b610759565b005b3480156102b557600080fd5b506102c96102c4366004613101565b61080b565b604080516001600160a01b0390931683526020830191909152016101f0565b3480156102f457600080fd5b506102a7610303366004613009565b61086a565b34801561031457600080fd5b506102a7610323366004612ccf565b6108ee565b34801561033457600080fd5b506102a7610343366004612faa565b610985565b34801561035457600080fd5b506102a7610363366004612faa565b6109b1565b34801561037457600080fd5b506102a7610a2f565b34801561038957600080fd5b5061039d610398366004612f38565b610af5565b6040516101f091906132e1565b3480156103b657600080fd5b506102196103c5366004612f91565b600090815260976020526040902054151590565b3480156103e557600080fd5b50466101e6565b3480156103f857600080fd5b506102a7610407366004612de4565b610c1e565b6101e661041a366004612e8c565b610c61565b34801561042b57600080fd5b506101e661043a3660046130bd565b610deb565b34801561044b57600080fd5b506102a761045a366004612c79565b610ec8565b34801561046b57600080fd5b5061021961047a366004612faa565b610f76565b34801561048b57600080fd5b506101e6600081565b3480156104a057600080fd5b506102a76104af366004612e59565b610fa2565b3480156104c057600080fd5b506101e66104cf366004612f91565b60009081526097602052604090205490565b3480156104ed57600080fd5b506102496104fc366004612f91565b610fad565b34801561050d57600080fd5b506101e67f9f2df0fed2c77648de5860a4cc508cd0818c85b8b8a1ab4ceeef8d981c8956a681565b34801561054157600080fd5b506102a7610550366004612faa565b61115c565b34801561056157600080fd5b5033600090815261016360205260409020546101e6565b34801561058457600080fd5b50610219610593366004612c96565b6001600160a01b03918216600090815260666020908152604080832093909416825291909152205460ff1690565b3480156105cd57600080fd5b506102a76105dc366004612d7c565b611183565b3480156105ed57600080fd5b506102a76105fc366004612f03565b6111c8565b60006001600160a01b0383166106725760405162461bcd60e51b815260206004820152602b60248201527f455243313135353a2062616c616e636520717565727920666f7220746865207a60448201526a65726f206164647265737360a81b60648201526084015b60405180910390fd5b5060009081526065602090815260408083206001600160a01b03949094168352929052205490565b60006001600160e01b0319821663152a902d60e11b14806106bf57506106bf8261120b565b92915050565b6060606780546106d490613709565b80601f016020809104026020016040519081016040528092919081815260200182805461070090613709565b801561074d5780601f106107225761010080835404028352916020019161074d565b820191906000526020600020905b81548152906001019060200180831161073057829003601f168201915b50505050509050919050565b336000908152610161602052604090205460ff166107b25760405162461bcd60e51b815260206004820152601660248201527529b2b73232b91034b9903737ba1030b71020b236b4b760511b6044820152606401610669565b6001600160a01b03811660008181526101616020908152604091829020805460ff1916905590519182527f535611fb62fa2a833988f283b779e417e996813e44046f521d76c17b5943b08c91015b60405180910390a150565b6000828152610164602090815260408083208151808301909252546001600160a01b038116808352600160a01b90910462ffffff16928201839052929161271090610856908661368c565b6108609190613678565b9150509250929050565b600054610100900460ff166108855760005460ff1615610889565b303b155b6108a55760405162461bcd60e51b81526004016106699061344f565b600054610100900460ff161580156108c7576000805461ffff19166101011790555b6108d48686868686611216565b80156108e6576000805461ff00191690555b505050505050565b6001600160a01b03851633148061090a575061090a8533610593565b6109715760405162461bcd60e51b815260206004820152603260248201527f455243313135353a207472616e736665722063616c6c6572206973206e6f74206044820152711bdddb995c881b9bdc88185c1c1c9bdd995960721b6064820152608401610669565b61097e85858585856112c1565b5050505050565b600082815261012f60205260409020600101546109a28133611466565b6109ac83836114ca565b505050565b6001600160a01b0381163314610a215760405162461bcd60e51b815260206004820152602f60248201527f416363657373436f6e74726f6c3a2063616e206f6e6c792072656e6f756e636560448201526e103937b632b9903337b91039b2b63360891b6064820152608401610669565b610a2b8282611551565b5050565b610a597f9f2df0fed2c77648de5860a4cc508cd0818c85b8b8a1ab4ceeef8d981c8956a633610f76565b610ab15760405162461bcd60e51b8152602060048201526024808201527f4f6e6c7920617574686f72697a6564206d696e746572732063616e20776974686044820152636472617760e01b6064820152608401610669565b336000818152610163602052604080822080549083905590519091839183156108fc0291849190818181858888f193505050501580156109ac573d6000803e3d6000fd5b60608151835114610b5a5760405162461bcd60e51b815260206004820152602960248201527f455243313135353a206163636f756e747320616e6420696473206c656e677468604482015268040dad2e6dac2e8c6d60bb1b6064820152608401610669565b600083516001600160401b03811115610b7557610b756137f7565b604051908082528060200260200182016040528015610b9e578160200160208202803683370190505b50905060005b8451811015610c1657610be9858281518110610bc257610bc26137e1565b6020026020010151858381518110610bdc57610bdc6137e1565b6020026020010151610601565b828281518110610bfb57610bfb6137e1565b6020908102919091010152610c0f81613770565b9050610ba4565b509392505050565b6001600160a01b038316331480610c3a5750610c3a8333610593565b610c565760405162461bcd60e51b8152600401610669906133c1565b6109ac8383836115b9565b600080610c6d8361174a565b90508260200135341015610cc35760405162461bcd60e51b815260206004820152601c60248201527f496e73756666696369656e742066756e647320746f2072656465656d000000006044820152606401610669565b610d158184356040860135610cdb60608801886135f7565b8080601f0160208091040260200160405190810160405280939291908181526020018383808284376000920191909152506117a392505050565b610d618335610d2760608601866135f7565b8080601f0160208091040260200160405190810160405280939291908181526020018383808284376000920191909152506118b592505050565b610db4818585356040870135610d7a60608901896135f7565b8080601f01602080910402602001604051908101604052809392919081815260200183838082843760009201919091525061194792505050565b6001600160a01b0381166000908152610163602052604081208054349290610ddd908490613660565b909155505091359392505050565b6000825160001415610e3f5760405162461bcd60e51b815260206004820152601960248201527f546f6b656e205552492063616e6e6f7420626520656d707479000000000000006044820152606401610669565b610e4e61016580546001019055565b610e6333610e5c6101655490565b84866117a3565b610e76610e706101655490565b846118b5565b7f7850d30e24d48004abab0b22b0325d7a3c7a4ce77f76c8c42693bf2fa1d05302610ea16101655490565b848433604051610eb494939291906135bd565b60405180910390a1610165545b9392505050565b336000908152610161602052604090205460ff16610f215760405162461bcd60e51b815260206004820152601660248201527529b2b73232b91034b9903737ba1030b71020b236b4b760511b6044820152606401610669565b6001600160a01b03811660008181526101616020908152604091829020805460ff1916600117905590519182527f534d18c8ff24ba5980906d732f3075704749427353734fbbf05d50485643b1249101610800565b600091825261012f602090815260408084206001600160a01b0393909316845291905290205460ff1690565b610a2b338383611a68565b6000818152609760205260409020546060906110265760405162461bcd60e51b815260206004820152603260248201527f4552433131353555524953746f726167653a2055524920717565727920666f72604482015271103737b732bc34b9ba32b73a103a37b5b2b760711b6064820152608401610669565b600082815260c960205260408120805461103f90613709565b80601f016020809104026020016040519081016040528092919081815260200182805461106b90613709565b80156110b85780601f1061108d576101008083540402835291602001916110b8565b820191906000526020600020905b81548152906001019060200180831161109b57829003601f168201915b5050505050905060006110d660408051602081019091526000815290565b90508051600014156110e9575092915050565b81511561111b57808260405160200161110392919061319a565b60405160208183030381529060405292505050919050565b60008151116111395760405180602001604052806000815250611154565b8061114385611b49565b60405160200161110392919061319a565b949350505050565b600082815261012f60205260409020600101546111798133611466565b6109ac8383611551565b6001600160a01b03851633148061119f575061119f8533610593565b6111bb5760405162461bcd60e51b8152600401610669906133c1565b61097e8585858585611947565b6001600160a01b0383163314806111e457506111e48333610593565b6112005760405162461bcd60e51b8152600401610669906133c1565b6109ac838383611c46565b60006106bf82611d4b565b600054610100900460ff166112315760005460ff1615611235565b303b155b6112515760405162461bcd60e51b81526004016106699061344f565b600054610100900460ff16158015611273576000805461ffff19166101011790555b61127b611d65565b6112858585611def565b61128e82611e20565b6112b87f9f2df0fed2c77648de5860a4cc508cd0818c85b8b8a1ab4ceeef8d981c8956a684611f1d565b6108d486611f27565b81518351146112e25760405162461bcd60e51b815260040161066990613575565b6001600160a01b0384166113085760405162461bcd60e51b81526004016106699061340a565b33611317818787878787611f3a565b60005b8451811015611400576000858281518110611337576113376137e1565b602002602001015190506000858381518110611355576113556137e1565b60209081029190910181015160008481526065835260408082206001600160a01b038e1683529093529190912054909150818110156113a65760405162461bcd60e51b8152600401610669906134e0565b60008381526065602090815260408083206001600160a01b038e8116855292528083208585039055908b168252812080548492906113e5908490613660565b92505081905550505050806113f990613770565b905061131a565b50846001600160a01b0316866001600160a01b0316826001600160a01b03167f4a39dc06d4c0dbc64b70af90fd698a233a518aa5d07e595d983b8c0526c8f7fb87876040516114509291906132f4565b60405180910390a46108e6818787878787612046565b6114708282610f76565b610a2b57611488816001600160a01b031660146121b1565b6114938360206121b1565b6040516020016114a49291906131c9565b60408051601f198184030181529082905262461bcd60e51b825261066991600401613322565b6114d48282610f76565b610a2b57600082815261012f602090815260408083206001600160a01b03851684529091529020805460ff1916600117905561150d3390565b6001600160a01b0316816001600160a01b0316837f2f8788117e7eff1d82e926ec794901d17c78024a50270940304540a733656f0d60405160405180910390a45050565b61155b8282610f76565b15610a2b57600082815261012f602090815260408083206001600160a01b0385168085529252808320805460ff1916905551339285917ff6391f5c32d9c69d2a47ea670b442974b53935d1edc7fd64eb21e047a839171b9190a45050565b6001600160a01b0383166115df5760405162461bcd60e51b81526004016106699061349d565b80518251146116005760405162461bcd60e51b815260040161066990613575565b600033905061162381856000868660405180602001604052806000815250611f3a565b60005b83518110156116eb576000848281518110611643576116436137e1565b602002602001015190506000848381518110611661576116616137e1565b60209081029190910181015160008481526065835260408082206001600160a01b038c1683529093529190912054909150818110156116b25760405162461bcd60e51b81526004016106699061337d565b60009283526065602090815260408085206001600160a01b038b16865290915290922091039055806116e381613770565b915050611626565b5060006001600160a01b0316846001600160a01b0316826001600160a01b03167f4a39dc06d4c0dbc64b70af90fd698a233a518aa5d07e595d983b8c0526c8f7fb868660405161173c9291906132f4565b60405180910390a450505050565b6000806117568361234c565b9050610ec18161176960808601866135f7565b8080601f0160208091040260200160405190810160405280939291908181526020018383808284376000920191909152506123e492505050565b6001600160a01b0384166118035760405162461bcd60e51b815260206004820152602160248201527f455243313135353a206d696e7420746f20746865207a65726f206164647265736044820152607360f81b6064820152608401610669565b336118238160008761181488612400565b61181d88612400565b87611f3a565b60008481526065602090815260408083206001600160a01b038916845290915281208054859290611855908490613660565b909155505060408051858152602081018590526001600160a01b0380881692600092918516917fc3d58168c5ae7397731d063d5bbf3d657854427343f4c083240f7aacaa2d0f62910160405180910390a461097e8160008787878761244b565b6000828152609760205260409020546119285760405162461bcd60e51b815260206004820152602f60248201527f4552433131353555524953746f726167653a2055524920736574206f66206e6f60448201526e3732bc34b9ba32b73a103a37b5b2b760891b6064820152608401610669565b600082815260c96020908152604090912082516109ac92840190612a83565b6001600160a01b03841661196d5760405162461bcd60e51b81526004016106699061340a565b3361197d81878761181488612400565b60008481526065602090815260408083206001600160a01b038a168452909152902054838110156119c05760405162461bcd60e51b8152600401610669906134e0565b60008581526065602090815260408083206001600160a01b038b81168552925280832087850390559088168252812080548692906119ff908490613660565b909155505060408051868152602081018690526001600160a01b03808916928a821692918616917fc3d58168c5ae7397731d063d5bbf3d657854427343f4c083240f7aacaa2d0f62910160405180910390a4611a5f82888888888861244b565b50505050505050565b816001600160a01b0316836001600160a01b03161415611adc5760405162461bcd60e51b815260206004820152602960248201527f455243313135353a2073657474696e6720617070726f76616c20737461747573604482015268103337b91039b2b63360b91b6064820152608401610669565b6001600160a01b03838116600081815260666020908152604080832094871680845294825291829020805460ff191686151590811790915591519182527f17307eab39ab6107e8899845ad3d59bd9653f200f220920489ca2b5937696c31910160405180910390a3505050565b606081611b6d5750506040805180820190915260018152600360fc1b602082015290565b8160005b8115611b975780611b8181613770565b9150611b909050600a83613678565b9150611b71565b6000816001600160401b03811115611bb157611bb16137f7565b6040519080825280601f01601f191660200182016040528015611bdb576020820181803683370190505b5090505b841561115457611bf06001836136ab565b9150611bfd600a8661378b565b611c08906030613660565b60f81b818381518110611c1d57611c1d6137e1565b60200101906001600160f81b031916908160001a905350611c3f600a86613678565b9450611bdf565b6001600160a01b038316611c6c5760405162461bcd60e51b81526004016106699061349d565b33611c9b81856000611c7d87612400565b611c8687612400565b60405180602001604052806000815250611f3a565b60008381526065602090815260408083206001600160a01b038816845290915290205482811015611cde5760405162461bcd60e51b81526004016106699061337d565b60008481526065602090815260408083206001600160a01b03898116808652918452828520888703905582518981529384018890529092908616917fc3d58168c5ae7397731d063d5bbf3d657854427343f4c083240f7aacaa2d0f62910160405180910390a45050505050565b6000611d5682612515565b806106bf57506106bf82612565565b600054610100900460ff16611d805760005460ff1615611d84565b303b155b611da05760405162461bcd60e51b81526004016106699061344f565b600054610100900460ff16158015611dc2576000805461ffff19166101011790555b611dca61258a565b611dd261258a565b611dda6125b3565b8015611dec576000805461ff00191690555b50565b600054610100900460ff16611e165760405162461bcd60e51b81526004016106699061352a565b610a2b8282612623565b600054610100900460ff16611e3b5760005460ff1615611e3f565b303b155b611e5b5760405162461bcd60e51b81526004016106699061344f565b600054610100900460ff16158015611e7d576000805461ffff19166101011790555b611e8561258a565b33600090815261016160205260408120805460ff191660011790555b8251811015611f075760016101616000858481518110611ec357611ec36137e1565b6020908102919091018101516001600160a01b03168252810191909152604001600020805460ff191691151591909117905580611eff81613770565b915050611ea1565b508015610a2b576000805461ff00191690555050565b610a2b82826114ca565b8051610a2b906067906020840190612a83565b6001600160a01b038516611fc15760005b8351811015611fbf57828181518110611f6657611f666137e1565b602002602001015160976000868481518110611f8457611f846137e1565b602002602001015181526020019081526020016000206000828254611fa99190613660565b90915550611fb8905081613770565b9050611f4b565b505b6001600160a01b0384166108e65760005b8351811015611a5f57828181518110611fed57611fed6137e1565b60200260200101516097600086848151811061200b5761200b6137e1565b60200260200101518152602001908152602001600020600082825461203091906136ab565b9091555061203f905081613770565b9050611fd2565b6001600160a01b0384163b156108e65760405163bc197c8160e01b81526001600160a01b0385169063bc197c819061208a908990899088908890889060040161323e565b602060405180830381600087803b1580156120a457600080fd5b505af19250505080156120d4575060408051601f3d908101601f191682019092526120d191810190612fec565b60015b612181576120e061380d565b806308c379a0141561211a57506120f5613829565b80612100575061211c565b8060405162461bcd60e51b81526004016106699190613322565b505b60405162461bcd60e51b815260206004820152603460248201527f455243313135353a207472616e7366657220746f206e6f6e20455243313135356044820152732932b1b2b4bb32b91034b6b83632b6b2b73a32b960611b6064820152608401610669565b6001600160e01b0319811663bc197c8160e01b14611a5f5760405162461bcd60e51b815260040161066990613335565b606060006121c083600261368c565b6121cb906002613660565b6001600160401b038111156121e2576121e26137f7565b6040519080825280601f01601f19166020018201604052801561220c576020820181803683370190505b509050600360fc1b81600081518110612227576122276137e1565b60200101906001600160f81b031916908160001a905350600f60fb1b81600181518110612256576122566137e1565b60200101906001600160f81b031916908160001a905350600061227a84600261368c565b612285906001613660565b90505b60018111156122fd576f181899199a1a9b1b9c1cb0b131b232b360811b85600f16601081106122b9576122b96137e1565b1a60f81b8282815181106122cf576122cf6137e1565b60200101906001600160f81b031916908160001a90535060049490941c936122f6816136f2565b9050612288565b508315610ec15760405162461bcd60e51b815260206004820181905260248201527f537472696e67733a20686578206c656e67746820696e73756666696369656e746044820152606401610669565b60006106bf7f6316f9ddd4d59a364f3b95c26bab9d392c3380ace0fff15e91ed76f0d8bcd15a83356020850135604086013561238b60608801886135f7565b60405161239992919061318a565b6040805191829003822060208301969096528101939093526060830191909152608082015260a081019190915260c00160405160208183030381529060405280519060200120612664565b60008060006123f385856126b2565b91509150610c1681612722565b6040805160018082528183019092526060916000919060208083019080368337019050509050828160008151811061243a5761243a6137e1565b602090810291909101015292915050565b6001600160a01b0384163b156108e65760405163f23a6e6160e01b81526001600160a01b0385169063f23a6e619061248f908990899088908890889060040161329c565b602060405180830381600087803b1580156124a957600080fd5b505af19250505080156124d9575060408051601f3d908101601f191682019092526124d691810190612fec565b60015b6124e5576120e061380d565b6001600160e01b0319811663f23a6e6160e01b14611a5f5760405162461bcd60e51b815260040161066990613335565b60006001600160e01b03198216636cdb3d1360e11b148061254657506001600160e01b031982166303a24d0760e21b145b806106bf57506301ffc9a760e01b6001600160e01b03198316146106bf565b60006001600160e01b03198216637965db0b60e01b14806106bf57506106bf82612515565b600054610100900460ff166125b15760405162461bcd60e51b81526004016106699061352a565b565b600054610100900460ff166125ce5760005460ff16156125d2565b303b155b6125ee5760405162461bcd60e51b81526004016106699061344f565b600054610100900460ff16158015611dda576000805461ffff19166101011790558015611dec576000805461ff001916905550565b600054610100900460ff1661264a5760405162461bcd60e51b81526004016106699061352a565b81516020928301208151919092012060fb9190915560fc55565b60006106bf6126716128dd565b8360405161190160f01b6020820152602281018390526042810182905260009060620160405160208183030381529060405280519060200120905092915050565b6000808251604114156126e95760208301516040840151606085015160001a6126dd8782858561295d565b9450945050505061271b565b8251604014156127135760208301516040840151612708868383612a4a565b93509350505061271b565b506000905060025b9250929050565b6000816004811115612736576127366137cb565b141561273f5750565b6001816004811115612753576127536137cb565b14156127a15760405162461bcd60e51b815260206004820152601860248201527f45434453413a20696e76616c6964207369676e617475726500000000000000006044820152606401610669565b60028160048111156127b5576127b56137cb565b14156128035760405162461bcd60e51b815260206004820152601f60248201527f45434453413a20696e76616c6964207369676e6174757265206c656e677468006044820152606401610669565b6003816004811115612817576128176137cb565b14156128705760405162461bcd60e51b815260206004820152602260248201527f45434453413a20696e76616c6964207369676e6174757265202773272076616c604482015261756560f01b6064820152608401610669565b6004816004811115612884576128846137cb565b1415611dec5760405162461bcd60e51b815260206004820152602260248201527f45434453413a20696e76616c6964207369676e6174757265202776272076616c604482015261756560f01b6064820152608401610669565b60006129587f8b73c3c69bb8fe3d512ecc4cf759cc79239f7b179b0ffacaa9a75d522b39400f61290c60fb5490565b60fc546040805160208101859052908101839052606081018290524660808201523060a082015260009060c0016040516020818303038152906040528051906020012090509392505050565b905090565b6000807f7fffffffffffffffffffffffffffffff5d576e7357a4501ddfe92f46681b20a08311156129945750600090506003612a41565b8460ff16601b141580156129ac57508460ff16601c14155b156129bd5750600090506004612a41565b6040805160008082526020820180845289905260ff881692820192909252606081018690526080810185905260019060a0016020604051602081039080840390855afa158015612a11573d6000803e3d6000fd5b5050604051601f1901519150506001600160a01b038116612a3a57600060019250925050612a41565b9150600090505b94509492505050565b6000806001600160ff1b03831681612a6760ff86901c601b613660565b9050612a758782888561295d565b935093505050935093915050565b828054612a8f90613709565b90600052602060002090601f016020900481019282612ab15760008555612af7565b82601f10612aca57805160ff1916838001178555612af7565b82800160010185558215612af7579182015b82811115612af7578251825591602001919060010190612adc565b50612b03929150612b07565b5090565b5b80821115612b035760008155600101612b08565b600082601f830112612b2d57600080fd5b81356020612b3a8261363d565b604051612b478282613744565b8381528281019150858301600585901b87018401881015612b6757600080fd5b60005b85811015612b8f578135612b7d816138b2565b84529284019290840190600101612b6a565b5090979650505050505050565b600082601f830112612bad57600080fd5b81356020612bba8261363d565b604051612bc78282613744565b8381528281019150858301600585901b87018401881015612be757600080fd5b60005b85811015612b8f57813584529284019290840190600101612bea565b600082601f830112612c1757600080fd5b81356001600160401b03811115612c3057612c306137f7565b604051612c47601f8301601f191660200182613744565b818152846020838601011115612c5c57600080fd5b816020850160208301376000918101602001919091529392505050565b600060208284031215612c8b57600080fd5b8135610ec1816138b2565b60008060408385031215612ca957600080fd5b8235612cb4816138b2565b91506020830135612cc4816138b2565b809150509250929050565b600080600080600060a08688031215612ce757600080fd5b8535612cf2816138b2565b94506020860135612d02816138b2565b935060408601356001600160401b0380821115612d1e57600080fd5b612d2a89838a01612b9c565b94506060880135915080821115612d4057600080fd5b612d4c89838a01612b9c565b93506080880135915080821115612d6257600080fd5b50612d6f88828901612c06565b9150509295509295909350565b600080600080600060a08688031215612d9457600080fd5b8535612d9f816138b2565b94506020860135612daf816138b2565b9350604086013592506060860135915060808601356001600160401b03811115612dd857600080fd5b612d6f88828901612c06565b600080600060608486031215612df957600080fd5b8335612e04816138b2565b925060208401356001600160401b0380821115612e2057600080fd5b612e2c87838801612b9c565b93506040860135915080821115612e4257600080fd5b50612e4f86828701612b9c565b9150509250925092565b60008060408385031215612e6c57600080fd5b8235612e77816138b2565b915060208301358015158114612cc457600080fd5b60008060408385031215612e9f57600080fd5b8235612eaa816138b2565b915060208301356001600160401b03811115612ec557600080fd5b830160a08186031215612cc457600080fd5b60008060408385031215612eea57600080fd5b8235612ef5816138b2565b946020939093013593505050565b600080600060608486031215612f1857600080fd5b8335612f23816138b2565b95602085013595506040909401359392505050565b60008060408385031215612f4b57600080fd5b82356001600160401b0380821115612f6257600080fd5b612f6e86838701612b1c565b93506020850135915080821115612f8457600080fd5b5061086085828601612b9c565b600060208284031215612fa357600080fd5b5035919050565b60008060408385031215612fbd57600080fd5b823591506020830135612cc4816138b2565b600060208284031215612fe157600080fd5b8135610ec1816138c7565b600060208284031215612ffe57600080fd5b8151610ec1816138c7565b600080600080600060a0868803121561302157600080fd5b85356001600160401b038082111561303857600080fd5b61304489838a01612c06565b9650602088013591508082111561305a57600080fd5b61306689838a01612c06565b9550604088013591508082111561307c57600080fd5b61308889838a01612c06565b94506060880135915061309a826138b2565b909250608087013590808211156130b057600080fd5b50612d6f88828901612b1c565b600080604083850312156130d057600080fd5b82356001600160401b038111156130e657600080fd5b6130f285828601612c06565b95602094909401359450505050565b6000806040838503121561311457600080fd5b50508035926020909101359150565b600081518084526020808501945080840160005b8381101561315357815187529582019590820190600101613137565b509495945050505050565b600081518084526131768160208601602086016136c2565b601f01601f19169290920160200192915050565b8183823760009101908152919050565b600083516131ac8184602088016136c2565b8351908301906131c08183602088016136c2565b01949350505050565b7f416363657373436f6e74726f6c3a206163636f756e74200000000000000000008152600083516132018160178501602088016136c2565b7001034b99036b4b9b9b4b733903937b6329607d1b60179184019182015283516132328160288401602088016136c2565b01602801949350505050565b6001600160a01b0386811682528516602082015260a06040820181905260009061326a90830186613123565b828103606084015261327c8186613123565b90508281036080840152613290818561315e565b98975050505050505050565b6001600160a01b03868116825285166020820152604081018490526060810183905260a0608082018190526000906132d69083018461315e565b979650505050505050565b602081526000610ec16020830184613123565b6040815260006133076040830185613123565b82810360208401526133198185613123565b95945050505050565b602081526000610ec1602083018461315e565b60208082526028908201527f455243313135353a204552433131353552656365697665722072656a656374656040820152676420746f6b656e7360c01b606082015260800190565b60208082526024908201527f455243313135353a206275726e20616d6f756e7420657863656564732062616c604082015263616e636560e01b606082015260800190565b60208082526029908201527f455243313135353a2063616c6c6572206973206e6f74206f776e6572206e6f7260408201526808185c1c1c9bdd995960ba1b606082015260800190565b60208082526025908201527f455243313135353a207472616e7366657220746f20746865207a65726f206164604082015264647265737360d81b606082015260800190565b6020808252602e908201527f496e697469616c697a61626c653a20636f6e747261637420697320616c72656160408201526d191e481a5b9a5d1a585b1a5e995960921b606082015260800190565b60208082526023908201527f455243313135353a206275726e2066726f6d20746865207a65726f206164647260408201526265737360e81b606082015260800190565b6020808252602a908201527f455243313135353a20696e73756666696369656e742062616c616e636520666f60408201526939103a3930b739b332b960b11b606082015260800190565b6020808252602b908201527f496e697469616c697a61626c653a20636f6e7472616374206973206e6f74206960408201526a6e697469616c697a696e6760a81b606082015260800190565b60208082526028908201527f455243313135353a2069647320616e6420616d6f756e7473206c656e677468206040820152670dad2e6dac2e8c6d60c31b606082015260800190565b8481526080602082015260006135d6608083018661315e565b6040830194909452506001600160a01b039190911660609091015292915050565b6000808335601e1984360301811261360e57600080fd5b8301803591506001600160401b0382111561362857600080fd5b60200191503681900382131561271b57600080fd5b60006001600160401b03821115613656576136566137f7565b5060051b60200190565b600082198211156136735761367361379f565b500190565b600082613687576136876137b5565b500490565b60008160001904831182151516156136a6576136a661379f565b500290565b6000828210156136bd576136bd61379f565b500390565b60005b838110156136dd5781810151838201526020016136c5565b838111156136ec576000848401525b50505050565b6000816137015761370161379f565b506000190190565b600181811c9082168061371d57607f821691505b6020821081141561373e57634e487b7160e01b600052602260045260246000fd5b50919050565b601f8201601f191681016001600160401b0381118282101715613769576137696137f7565b6040525050565b60006000198214156137845761378461379f565b5060010190565b60008261379a5761379a6137b5565b500690565b634e487b7160e01b600052601160045260246000fd5b634e487b7160e01b600052601260045260246000fd5b634e487b7160e01b600052602160045260246000fd5b634e487b7160e01b600052603260045260246000fd5b634e487b7160e01b600052604160045260246000fd5b600060033d11156138265760046000803e5060005160e01c5b90565b600060443d10156138375790565b6040516003193d81016004833e81513d6001600160401b03816024840111818411171561386657505050505090565b828501915081518181111561387e5750505050505090565b843d87010160208285010111156138985750505050505090565b6138a760208286010187613744565b509095945050505050565b6001600160a01b0381168114611dec57600080fd5b6001600160e01b031981168114611dec57600080fdfea26469706673582212200826c9a872d7a600ce8a2238a4ad165be1422f7a007d975d77c9b43ae4fcb01464736f6c63430008070033",
  "linkReferences": {},
  "deployedLinkReferences": {}
}