{
  "_format": "hh-sol-artifact-1",
  "contractName": "LazyNFTERC721",
  "sourceName": "contracts/ERC721/LazyMintERC721.sol",
  "abi": [
    {
      "anonymous": false,
      "inputs": [
        {
          "indexed": false,
          "internalType": "address",
          "name": "newWhitelistAddress",
          "type": "address"
        }
      ],
      "name": "AddressAddedToWhitelist",
      "type": "event"
    },
    {
      "anonymous": false,
      "inputs": [
        {
          "indexed": false,
          "internalType": "address",
          "name": "removedWhitelistAddress",
          "type": "address"
        }
      ],
      "name": "AddressRemovedFromWhitelist",
      "type": "event"
    },
    {
      "anonymous": false,
      "inputs": [
        {
          "indexed": true,
          "internalType": "address",
          "name": "owner",
          "type": "address"
        },
        {
          "indexed": true,
          "internalType": "address",
          "name": "approved",
          "type": "address"
        },
        {
          "indexed": true,
          "internalType": "uint256",
          "name": "tokenId",
          "type": "uint256"
        }
      ],
      "name": "Approval",
      "type": "event"
    },
    {
      "anonymous": false,
      "inputs": [
        {
          "indexed": true,
          "internalType": "address",
          "name": "owner",
          "type": "address"
        },
        {
          "indexed": true,
          "internalType": "address",
          "name": "operator",
          "type": "address"
        },
        {
          "indexed": false,
          "internalType": "bool",
          "name": "approved",
          "type": "bool"
        }
      ],
      "name": "ApprovalForAll",
      "type": "event"
    },
    {
      "anonymous": false,
      "inputs": [
        {
          "indexed": true,
          "internalType": "bytes32",
          "name": "role",
          "type": "bytes32"
        },
        {
          "indexed": true,
          "internalType": "bytes32",
          "name": "previousAdminRole",
          "type": "bytes32"
        },
        {
          "indexed": true,
          "internalType": "bytes32",
          "name": "newAdminRole",
          "type": "bytes32"
        }
      ],
      "name": "RoleAdminChanged",
      "type": "event"
    },
    {
      "anonymous": false,
      "inputs": [
        {
          "indexed": true,
          "internalType": "bytes32",
          "name": "role",
          "type": "bytes32"
        },
        {
          "indexed": true,
          "internalType": "address",
          "name": "account",
          "type": "address"
        },
        {
          "indexed": true,
          "internalType": "address",
          "name": "sender",
          "type": "address"
        }
      ],
      "name": "RoleGranted",
      "type": "event"
    },
    {
      "anonymous": false,
      "inputs": [
        {
          "indexed": true,
          "internalType": "bytes32",
          "name": "role",
          "type": "bytes32"
        },
        {
          "indexed": true,
          "internalType": "address",
          "name": "account",
          "type": "address"
        },
        {
          "indexed": true,
          "internalType": "address",
          "name": "sender",
          "type": "address"
        }
      ],
      "name": "RoleRevoked",
      "type": "event"
    },
    {
      "anonymous": false,
      "inputs": [
        {
          "indexed": true,
          "internalType": "address",
          "name": "from",
          "type": "address"
        },
        {
          "indexed": true,
          "internalType": "address",
          "name": "to",
          "type": "address"
        },
        {
          "indexed": true,
          "internalType": "uint256",
          "name": "tokenId",
          "type": "uint256"
        }
      ],
      "name": "Transfer",
      "type": "event"
    },
    {
      "inputs": [],
      "name": "DEFAULT_ADMIN_ROLE",
      "outputs": [
        {
          "internalType": "bytes32",
          "name": "",
          "type": "bytes32"
        }
      ],
      "stateMutability": "view",
      "type": "function"
    },
    {
      "inputs": [],
      "name": "MINTER_ROLE",
      "outputs": [
        {
          "internalType": "bytes32",
          "name": "",
          "type": "bytes32"
        }
      ],
      "stateMutability": "view",
      "type": "function"
    },
    {
      "inputs": [
        {
          "internalType": "address",
          "name": "addr",
          "type": "address"
        }
      ],
      "name": "addAddressToWhitelist",
      "outputs": [],
      "stateMutability": "nonpayable",
      "type": "function"
    },
    {
      "inputs": [
        {
          "internalType": "address",
          "name": "to",
          "type": "address"
        },
        {
          "internalType": "uint256",
          "name": "tokenId",
          "type": "uint256"
        }
      ],
      "name": "approve",
      "outputs": [],
      "stateMutability": "nonpayable",
      "type": "function"
    },
    {
      "inputs": [],
      "name": "availableToWithdraw",
      "outputs": [
        {
          "internalType": "uint256",
          "name": "",
          "type": "uint256"
        }
      ],
      "stateMutability": "view",
      "type": "function"
    },
    {
      "inputs": [
        {
          "internalType": "address",
          "name": "owner",
          "type": "address"
        }
      ],
      "name": "balanceOf",
      "outputs": [
        {
          "internalType": "uint256",
          "name": "",
          "type": "uint256"
        }
      ],
      "stateMutability": "view",
      "type": "function"
    },
    {
      "inputs": [
        {
          "internalType": "uint256",
          "name": "tokenId",
          "type": "uint256"
        }
      ],
      "name": "getApproved",
      "outputs": [
        {
          "internalType": "address",
          "name": "",
          "type": "address"
        }
      ],
      "stateMutability": "view",
      "type": "function"
    },
    {
      "inputs": [],
      "name": "getChainID",
      "outputs": [
        {
          "internalType": "uint256",
          "name": "",
          "type": "uint256"
        }
      ],
      "stateMutability": "view",
      "type": "function"
    },
    {
      "inputs": [
        {
          "internalType": "bytes32",
          "name": "role",
          "type": "bytes32"
        }
      ],
      "name": "getRoleAdmin",
      "outputs": [
        {
          "internalType": "bytes32",
          "name": "",
          "type": "bytes32"
        }
      ],
      "stateMutability": "view",
      "type": "function"
    },
    {
      "inputs": [
        {
          "internalType": "bytes32",
          "name": "role",
          "type": "bytes32"
        },
        {
          "internalType": "address",
          "name": "account",
          "type": "address"
        }
      ],
      "name": "grantRole",
      "outputs": [],
      "stateMutability": "nonpayable",
      "type": "function"
    },
    {
      "inputs": [
        {
          "internalType": "bytes32",
          "name": "role",
          "type": "bytes32"
        },
        {
          "internalType": "address",
          "name": "account",
          "type": "address"
        }
      ],
      "name": "hasRole",
      "outputs": [
        {
          "internalType": "bool",
          "name": "",
          "type": "bool"
        }
      ],
      "stateMutability": "view",
      "type": "function"
    },
    {
      "inputs": [
        {
          "internalType": "address",
          "name": "owner",
          "type": "address"
        },
        {
          "internalType": "address",
          "name": "operator",
          "type": "address"
        }
      ],
      "name": "isApprovedForAll",
      "outputs": [
        {
          "internalType": "bool",
          "name": "",
          "type": "bool"
        }
      ],
      "stateMutability": "view",
      "type": "function"
    },
    {
      "inputs": [],
      "name": "name",
      "outputs": [
        {
          "internalType": "string",
          "name": "",
          "type": "string"
        }
      ],
      "stateMutability": "view",
      "type": "function"
    },
    {
      "inputs": [
        {
          "internalType": "uint256",
          "name": "tokenId",
          "type": "uint256"
        }
      ],
      "name": "ownerOf",
      "outputs": [
        {
          "internalType": "address",
          "name": "",
          "type": "address"
        }
      ],
      "stateMutability": "view",
      "type": "function"
    },
    {
      "inputs": [
        {
          "internalType": "address",
          "name": "redeemer",
          "type": "address"
        },
        {
          "components": [
            {
              "internalType": "uint256",
              "name": "tokenId",
              "type": "uint256"
            },
            {
              "internalType": "uint256",
              "name": "minPrice",
              "type": "uint256"
            },
            {
              "internalType": "string",
              "name": "uri",
              "type": "string"
            },
            {
              "internalType": "bytes",
              "name": "signature",
              "type": "bytes"
            }
          ],
          "internalType": "struct LazyNFTERC721.NFTVoucher",
          "name": "voucher",
          "type": "tuple"
        }
      ],
      "name": "redeem",
      "outputs": [
        {
          "internalType": "uint256",
          "name": "",
          "type": "uint256"
        }
      ],
      "stateMutability": "payable",
      "type": "function"
    },
    {
      "inputs": [
        {
          "internalType": "address",
          "name": "addr",
          "type": "address"
        }
      ],
      "name": "removeAddressFromWhitelist",
      "outputs": [],
      "stateMutability": "nonpayable",
      "type": "function"
    },
    {
      "inputs": [
        {
          "internalType": "bytes32",
          "name": "role",
          "type": "bytes32"
        },
        {
          "internalType": "address",
          "name": "account",
          "type": "address"
        }
      ],
      "name": "renounceRole",
      "outputs": [],
      "stateMutability": "nonpayable",
      "type": "function"
    },
    {
      "inputs": [
        {
          "internalType": "bytes32",
          "name": "role",
          "type": "bytes32"
        },
        {
          "internalType": "address",
          "name": "account",
          "type": "address"
        }
      ],
      "name": "revokeRole",
      "outputs": [],
      "stateMutability": "nonpayable",
      "type": "function"
    },
    {
      "inputs": [
        {
          "internalType": "address",
          "name": "from",
          "type": "address"
        },
        {
          "internalType": "address",
          "name": "to",
          "type": "address"
        },
        {
          "internalType": "uint256",
          "name": "tokenId",
          "type": "uint256"
        }
      ],
      "name": "safeTransferFrom",
      "outputs": [],
      "stateMutability": "nonpayable",
      "type": "function"
    },
    {
      "inputs": [
        {
          "internalType": "address",
          "name": "from",
          "type": "address"
        },
        {
          "internalType": "address",
          "name": "to",
          "type": "address"
        },
        {
          "internalType": "uint256",
          "name": "tokenId",
          "type": "uint256"
        },
        {
          "internalType": "bytes",
          "name": "_data",
          "type": "bytes"
        }
      ],
      "name": "safeTransferFrom",
      "outputs": [],
      "stateMutability": "nonpayable",
      "type": "function"
    },
    {
      "inputs": [
        {
          "internalType": "address",
          "name": "operator",
          "type": "address"
        },
        {
          "internalType": "bool",
          "name": "approved",
          "type": "bool"
        }
      ],
      "name": "setApprovalForAll",
      "outputs": [],
      "stateMutability": "nonpayable",
      "type": "function"
    },
    {
      "inputs": [
        {
          "internalType": "bytes4",
          "name": "interfaceId",
          "type": "bytes4"
        }
      ],
      "name": "supportsInterface",
      "outputs": [
        {
          "internalType": "bool",
          "name": "",
          "type": "bool"
        }
      ],
      "stateMutability": "view",
      "type": "function"
    },
    {
      "inputs": [],
      "name": "symbol",
      "outputs": [
        {
          "internalType": "string",
          "name": "",
          "type": "string"
        }
      ],
      "stateMutability": "view",
      "type": "function"
    },
    {
      "inputs": [
        {
          "internalType": "uint256",
          "name": "tokenId",
          "type": "uint256"
        }
      ],
      "name": "tokenURI",
      "outputs": [
        {
          "internalType": "string",
          "name": "",
          "type": "string"
        }
      ],
      "stateMutability": "view",
      "type": "function"
    },
    {
      "inputs": [
        {
          "internalType": "address",
          "name": "from",
          "type": "address"
        },
        {
          "internalType": "address",
          "name": "to",
          "type": "address"
        },
        {
          "internalType": "uint256",
          "name": "tokenId",
          "type": "uint256"
        }
      ],
      "name": "transferFrom",
      "outputs": [],
      "stateMutability": "nonpayable",
      "type": "function"
    },
    {
      "inputs": [],
      "name": "withdraw",
      "outputs": [],
      "stateMutability": "nonpayable",
      "type": "function"
    }
  ],
  "bytecode": "0x608060405234801561001057600080fd5b50612705806100206000396000f3fe6080604052600436106101815760003560e01c80636352211e116100d1578063a22cb4651161008a578063d539139311610064578063d53913931461045a578063d547741f1461048e578063e322ad2b146104ae578063e985e9c5146104d157600080fd5b8063a22cb465146103fa578063b88d4fde1461041a578063c87b56dd1461043a57600080fd5b80636352211e1461035057806370a08231146103705780637b9417c81461039057806391d14854146103b057806395d89b41146103d0578063a217fddf146103e557600080fd5b8063248a9ca31161013e57806336568abe1161011857806336568abe146102e85780633ccfd60b1461030857806342842e0e1461031d578063564b81ef1461033d57600080fd5b8063248a9ca314610278578063286dd3f5146102a85780632f2ff15d146102c857600080fd5b806301ffc9a71461018657806306fdde03146101bb578063081812fc146101dd57806308708a7814610215578063095ea7b31461023657806323b872dd14610258575b600080fd5b34801561019257600080fd5b506101a66101a13660046122e8565b61051a565b60405190151581526020015b60405180910390f35b3480156101c757600080fd5b506101d061053a565b6040516101b2919061243f565b3480156101e957600080fd5b506101fd6101f83660046122ac565b6105cc565b6040516001600160a01b0390911681526020016101b2565b610228610223366004612238565b610659565b6040519081526020016101b2565b34801561024257600080fd5b50610256610251366004612282565b610755565b005b34801561026457600080fd5b506102566102733660046120e4565b61086b565b34801561028457600080fd5b506102286102933660046122ac565b600090815260fd602052604090206001015490565b3480156102b457600080fd5b506102566102c3366004612096565b61089c565b3480156102d457600080fd5b506102566102e33660046122c5565b61094e565b3480156102f457600080fd5b506102566103033660046122c5565b610974565b34801561031457600080fd5b506102566109f2565b34801561032957600080fd5b506102566103383660046120e4565b610ab8565b34801561034957600080fd5b5046610228565b34801561035c57600080fd5b506101fd61036b3660046122ac565b610ad3565b34801561037c57600080fd5b5061022861038b366004612096565b610b4a565b34801561039c57600080fd5b506102566103ab366004612096565b610bd1565b3480156103bc57600080fd5b506101a66103cb3660046122c5565b610c7f565b3480156103dc57600080fd5b506101d0610caa565b3480156103f157600080fd5b50610228600081565b34801561040657600080fd5b506102566104153660046121fc565b610cb9565b34801561042657600080fd5b50610256610435366004612120565b610cc4565b34801561044657600080fd5b506101d06104553660046122ac565b610cfc565b34801561046657600080fd5b506102287f9f2df0fed2c77648de5860a4cc508cd0818c85b8b8a1ab4ceeef8d981c8956a681565b34801561049a57600080fd5b506102566104a93660046122c5565b610e73565b3480156104ba57600080fd5b503360009081526101316020526040902054610228565b3480156104dd57600080fd5b506101a66104ec3660046120b1565b6001600160a01b039182166000908152606a6020908152604080832093909416825291909152205460ff1690565b600061052582610e99565b80610534575061053482610ee9565b92915050565b606060658054610549906125e1565b80601f0160208091040260200160405190810160405280929190818152602001828054610575906125e1565b80156105c25780601f10610597576101008083540402835291602001916105c2565b820191906000526020600020905b8154815290600101906020018083116105a557829003601f168201915b5050505050905090565b60006105d782610f0e565b61063d5760405162461bcd60e51b815260206004820152602c60248201527f4552433732313a20617070726f76656420717565727920666f72206e6f6e657860448201526b34b9ba32b73a103a37b5b2b760a11b60648201526084015b60405180910390fd5b506000908152606960205260409020546001600160a01b031690565b60008061066583610f2b565b905082602001353410156106bb5760405162461bcd60e51b815260206004820152601c60248201527f496e73756666696369656e742066756e647320746f2072656465656d000000006044820152606401610634565b6106c6818435610f8b565b61071283356106d860408601866124f5565b8080601f0160208091040260200160405190810160405280939291908181526020018383808284376000920191909152506110be92505050565b61071e81858535611149565b6001600160a01b038116600090815261013160205260408120805434929061074790849061253c565b909155505091359392505050565b600061076082610ad3565b9050806001600160a01b0316836001600160a01b031614156107ce5760405162461bcd60e51b815260206004820152602160248201527f4552433732313a20617070726f76616c20746f2063757272656e74206f776e656044820152603960f91b6064820152608401610634565b336001600160a01b03821614806107ea57506107ea81336104ec565b61085c5760405162461bcd60e51b815260206004820152603860248201527f4552433732313a20617070726f76652063616c6c6572206973206e6f74206f7760448201527f6e6572206e6f7220617070726f76656420666f7220616c6c00000000000000006064820152608401610634565b61086683836112e5565b505050565b6108753382611353565b6108915760405162461bcd60e51b8152600401610634906124a4565b610866838383611149565b33600090815261012f602052604090205460ff166108f55760405162461bcd60e51b815260206004820152601660248201527529b2b73232b91034b9903737ba1030b71020b236b4b760511b6044820152606401610634565b6001600160a01b038116600081815261012f6020908152604091829020805460ff1916905590519182527f535611fb62fa2a833988f283b779e417e996813e44046f521d76c17b5943b08c91015b60405180910390a150565b600082815260fd602052604090206001015461096a8133611439565b610866838361149d565b6001600160a01b03811633146109e45760405162461bcd60e51b815260206004820152602f60248201527f416363657373436f6e74726f6c3a2063616e206f6e6c792072656e6f756e636560448201526e103937b632b9903337b91039b2b63360891b6064820152608401610634565b6109ee8282611523565b5050565b610a1c7f9f2df0fed2c77648de5860a4cc508cd0818c85b8b8a1ab4ceeef8d981c8956a633610c7f565b610a745760405162461bcd60e51b8152602060048201526024808201527f4f6e6c7920617574686f72697a6564206d696e746572732063616e20776974686044820152636472617760e01b6064820152608401610634565b336000818152610131602052604080822080549083905590519091839183156108fc0291849190818181858888f19350505050158015610866573d6000803e3d6000fd5b61086683838360405180602001604052806000815250610cc4565b6000818152606760205260408120546001600160a01b0316806105345760405162461bcd60e51b815260206004820152602960248201527f4552433732313a206f776e657220717565727920666f72206e6f6e657869737460448201526832b73a103a37b5b2b760b91b6064820152608401610634565b60006001600160a01b038216610bb55760405162461bcd60e51b815260206004820152602a60248201527f4552433732313a2062616c616e636520717565727920666f7220746865207a65604482015269726f206164647265737360b01b6064820152608401610634565b506001600160a01b031660009081526068602052604090205490565b33600090815261012f602052604090205460ff16610c2a5760405162461bcd60e51b815260206004820152601660248201527529b2b73232b91034b9903737ba1030b71020b236b4b760511b6044820152606401610634565b6001600160a01b038116600081815261012f6020908152604091829020805460ff1916600117905590519182527f534d18c8ff24ba5980906d732f3075704749427353734fbbf05d50485643b1249101610943565b600091825260fd602090815260408084206001600160a01b0393909316845291905290205460ff1690565b606060668054610549906125e1565b6109ee33838361158a565b610cce3383611353565b610cea5760405162461bcd60e51b8152600401610634906124a4565b610cf684848484611659565b50505050565b6060610d0782610f0e565b610d6d5760405162461bcd60e51b815260206004820152603160248201527f45524337323155524953746f726167653a2055524920717565727920666f72206044820152703737b732bc34b9ba32b73a103a37b5b2b760791b6064820152608401610634565b60008281526097602052604081208054610d86906125e1565b80601f0160208091040260200160405190810160405280929190818152602001828054610db2906125e1565b8015610dff5780601f10610dd457610100808354040283529160200191610dff565b820191906000526020600020905b815481529060010190602001808311610de257829003601f168201915b505050505090506000610e1d60408051602081019091526000815290565b9050805160001415610e30575092915050565b815115610e62578082604051602001610e4a92919061235e565b60405160208183030381529060405292505050919050565b610e6b8461168c565b949350505050565b600082815260fd6020526040902060010154610e8f8133611439565b6108668383611523565b60006001600160e01b031982166380ac58cd60e01b1480610eca57506001600160e01b03198216635b5e139f60e01b145b8061053457506301ffc9a760e01b6001600160e01b0319831614610534565b60006001600160e01b03198216637965db0b60e01b1480610534575061053482610e99565b6000908152606760205260409020546001600160a01b0316151590565b600080610f3783611763565b9050610f8481610f4a60608601866124f5565b8080601f0160208091040260200160405190810160405280939291908181526020018383808284376000920191909152506117f492505050565b9392505050565b6001600160a01b038216610fe15760405162461bcd60e51b815260206004820181905260248201527f4552433732313a206d696e7420746f20746865207a65726f20616464726573736044820152606401610634565b610fea81610f0e565b156110375760405162461bcd60e51b815260206004820152601c60248201527f4552433732313a20746f6b656e20616c7265616479206d696e746564000000006044820152606401610634565b6001600160a01b038216600090815260686020526040812080546001929061106090849061253c565b909155505060008181526067602052604080822080546001600160a01b0319166001600160a01b03861690811790915590518392907fddf252ad1be2c89b69c2b068fc378daa952ba7f163c4a11628f55a4df523b3ef908290a45050565b6110c782610f0e565b61112a5760405162461bcd60e51b815260206004820152602e60248201527f45524337323155524953746f726167653a2055524920736574206f66206e6f6e60448201526d32bc34b9ba32b73a103a37b5b2b760911b6064820152608401610634565b6000828152609760209081526040909120825161086692840190611fe1565b826001600160a01b031661115c82610ad3565b6001600160a01b0316146111c05760405162461bcd60e51b815260206004820152602560248201527f4552433732313a207472616e736665722066726f6d20696e636f72726563742060448201526437bbb732b960d91b6064820152608401610634565b6001600160a01b0382166112225760405162461bcd60e51b8152602060048201526024808201527f4552433732313a207472616e7366657220746f20746865207a65726f206164646044820152637265737360e01b6064820152608401610634565b61122d6000826112e5565b6001600160a01b0383166000908152606860205260408120805460019290611256908490612587565b90915550506001600160a01b038216600090815260686020526040812080546001929061128490849061253c565b909155505060008181526067602052604080822080546001600160a01b0319166001600160a01b0386811691821790925591518493918716917fddf252ad1be2c89b69c2b068fc378daa952ba7f163c4a11628f55a4df523b3ef91a4505050565b600081815260696020526040902080546001600160a01b0319166001600160a01b038416908117909155819061131a82610ad3565b6001600160a01b03167f8c5be1e5ebec7d5bd14f71427d1e84f3dd0314c0f7b2291e5b200ac8c7c3b92560405160405180910390a45050565b600061135e82610f0e565b6113bf5760405162461bcd60e51b815260206004820152602c60248201527f4552433732313a206f70657261746f7220717565727920666f72206e6f6e657860448201526b34b9ba32b73a103a37b5b2b760a11b6064820152608401610634565b60006113ca83610ad3565b9050806001600160a01b0316846001600160a01b031614806114055750836001600160a01b03166113fa846105cc565b6001600160a01b0316145b80610e6b57506001600160a01b038082166000908152606a602090815260408083209388168352929052205460ff16610e6b565b6114438282610c7f565b6109ee5761145b816001600160a01b03166014611818565b611466836020611818565b60405160200161147792919061238d565b60408051601f198184030181529082905262461bcd60e51b82526106349160040161243f565b6114a78282610c7f565b6109ee57600082815260fd602090815260408083206001600160a01b03851684529091529020805460ff191660011790556114df3390565b6001600160a01b0316816001600160a01b0316837f2f8788117e7eff1d82e926ec794901d17c78024a50270940304540a733656f0d60405160405180910390a45050565b61152d8282610c7f565b156109ee57600082815260fd602090815260408083206001600160a01b0385168085529252808320805460ff1916905551339285917ff6391f5c32d9c69d2a47ea670b442974b53935d1edc7fd64eb21e047a839171b9190a45050565b816001600160a01b0316836001600160a01b031614156115ec5760405162461bcd60e51b815260206004820152601960248201527f4552433732313a20617070726f766520746f2063616c6c6572000000000000006044820152606401610634565b6001600160a01b038381166000818152606a6020908152604080832094871680845294825291829020805460ff191686151590811790915591519182527f17307eab39ab6107e8899845ad3d59bd9653f200f220920489ca2b5937696c31910160405180910390a3505050565b611664848484611149565b611670848484846119b4565b610cf65760405162461bcd60e51b815260040161063490612452565b606061169782610f0e565b6116fb5760405162461bcd60e51b815260206004820152602f60248201527f4552433732314d657461646174613a2055524920717565727920666f72206e6f60448201526e3732bc34b9ba32b73a103a37b5b2b760891b6064820152608401610634565b600061171260408051602081019091526000815290565b905060008151116117325760405180602001604052806000815250610f84565b8061173c84611ac1565b60405160200161174d92919061235e565b6040516020818303038152906040529392505050565b60006105347f6316f9ddd4d59a364f3b95c26bab9d392c3380ace0fff15e91ed76f0d8bcd15a8335602085013561179d60408701876124f5565b6040516117ab92919061234e565b6040519081900381206117d99493929160200193845260208401929092526040830152606082015260800190565b60405160208183030381529060405280519060200120611bbf565b60008060006118038585611c0d565b9150915061181081611c7d565b509392505050565b60606000611827836002612568565b61183290600261253c565b67ffffffffffffffff81111561184a5761184a6126a3565b6040519080825280601f01601f191660200182016040528015611874576020820181803683370190505b509050600360fc1b8160008151811061188f5761188f61268d565b60200101906001600160f81b031916908160001a905350600f60fb1b816001815181106118be576118be61268d565b60200101906001600160f81b031916908160001a90535060006118e2846002612568565b6118ed90600161253c565b90505b6001811115611965576f181899199a1a9b1b9c1cb0b131b232b360811b85600f16601081106119215761192161268d565b1a60f81b8282815181106119375761193761268d565b60200101906001600160f81b031916908160001a90535060049490941c9361195e816125ca565b90506118f0565b508315610f845760405162461bcd60e51b815260206004820181905260248201527f537472696e67733a20686578206c656e67746820696e73756666696369656e746044820152606401610634565b60006001600160a01b0384163b15611ab657604051630a85bd0160e11b81526001600160a01b0385169063150b7a02906119f8903390899088908890600401612402565b602060405180830381600087803b158015611a1257600080fd5b505af1925050508015611a42575060408051601f3d908101601f19168201909252611a3f91810190612305565b60015b611a9c573d808015611a70576040519150601f19603f3d011682016040523d82523d6000602084013e611a75565b606091505b508051611a945760405162461bcd60e51b815260040161063490612452565b805181602001fd5b6001600160e01b031916630a85bd0160e11b149050610e6b565b506001949350505050565b606081611ae55750506040805180820190915260018152600360fc1b602082015290565b8160005b8115611b0f5780611af98161261c565b9150611b089050600a83612554565b9150611ae9565b60008167ffffffffffffffff811115611b2a57611b2a6126a3565b6040519080825280601f01601f191660200182016040528015611b54576020820181803683370190505b5090505b8415610e6b57611b69600183612587565b9150611b76600a86612637565b611b8190603061253c565b60f81b818381518110611b9657611b9661268d565b60200101906001600160f81b031916908160001a905350611bb8600a86612554565b9450611b58565b6000610534611bcc611e3b565b8360405161190160f01b6020820152602281018390526042810182905260009060620160405160208183030381529060405280519060200120905092915050565b600080825160411415611c445760208301516040840151606085015160001a611c3887828585611ebb565b94509450505050611c76565b825160401415611c6e5760208301516040840151611c63868383611fa8565b935093505050611c76565b506000905060025b9250929050565b6000816004811115611c9157611c91612677565b1415611c9a5750565b6001816004811115611cae57611cae612677565b1415611cfc5760405162461bcd60e51b815260206004820152601860248201527f45434453413a20696e76616c6964207369676e617475726500000000000000006044820152606401610634565b6002816004811115611d1057611d10612677565b1415611d5e5760405162461bcd60e51b815260206004820152601f60248201527f45434453413a20696e76616c6964207369676e6174757265206c656e677468006044820152606401610634565b6003816004811115611d7257611d72612677565b1415611dcb5760405162461bcd60e51b815260206004820152602260248201527f45434453413a20696e76616c6964207369676e6174757265202773272076616c604482015261756560f01b6064820152608401610634565b6004816004811115611ddf57611ddf612677565b1415611e385760405162461bcd60e51b815260206004820152602260248201527f45434453413a20696e76616c6964207369676e6174757265202776272076616c604482015261756560f01b6064820152608401610634565b50565b6000611eb67f8b73c3c69bb8fe3d512ecc4cf759cc79239f7b179b0ffacaa9a75d522b39400f611e6a60c95490565b60ca546040805160208101859052908101839052606081018290524660808201523060a082015260009060c0016040516020818303038152906040528051906020012090509392505050565b905090565b6000807f7fffffffffffffffffffffffffffffff5d576e7357a4501ddfe92f46681b20a0831115611ef25750600090506003611f9f565b8460ff16601b14158015611f0a57508460ff16601c14155b15611f1b5750600090506004611f9f565b6040805160008082526020820180845289905260ff881692820192909252606081018690526080810185905260019060a0016020604051602081039080840390855afa158015611f6f573d6000803e3d6000fd5b5050604051601f1901519150506001600160a01b038116611f9857600060019250925050611f9f565b9150600090505b94509492505050565b6000806001600160ff1b03831681611fc560ff86901c601b61253c565b9050611fd387828885611ebb565b935093505050935093915050565b828054611fed906125e1565b90600052602060002090601f01602090048101928261200f5760008555612055565b82601f1061202857805160ff1916838001178555612055565b82800160010185558215612055579182015b8281111561205557825182559160200191906001019061203a565b50612061929150612065565b5090565b5b808211156120615760008155600101612066565b80356001600160a01b038116811461209157600080fd5b919050565b6000602082840312156120a857600080fd5b610f848261207a565b600080604083850312156120c457600080fd5b6120cd8361207a565b91506120db6020840161207a565b90509250929050565b6000806000606084860312156120f957600080fd5b6121028461207a565b92506121106020850161207a565b9150604084013590509250925092565b6000806000806080858703121561213657600080fd5b61213f8561207a565b935061214d6020860161207a565b925060408501359150606085013567ffffffffffffffff8082111561217157600080fd5b818701915087601f83011261218557600080fd5b813581811115612197576121976126a3565b604051601f8201601f19908116603f011681019083821181831017156121bf576121bf6126a3565b816040528281528a60208487010111156121d857600080fd5b82602086016020830137600060208483010152809550505050505092959194509250565b6000806040838503121561220f57600080fd5b6122188361207a565b91506020830135801515811461222d57600080fd5b809150509250929050565b6000806040838503121561224b57600080fd5b6122548361207a565b9150602083013567ffffffffffffffff81111561227057600080fd5b83016080818603121561222d57600080fd5b6000806040838503121561229557600080fd5b61229e8361207a565b946020939093013593505050565b6000602082840312156122be57600080fd5b5035919050565b600080604083850312156122d857600080fd5b823591506120db6020840161207a565b6000602082840312156122fa57600080fd5b8135610f84816126b9565b60006020828403121561231757600080fd5b8151610f84816126b9565b6000815180845261233a81602086016020860161259e565b601f01601f19169290920160200192915050565b8183823760009101908152919050565b6000835161237081846020880161259e565b83519083019061238481836020880161259e565b01949350505050565b7f416363657373436f6e74726f6c3a206163636f756e74200000000000000000008152600083516123c581601785016020880161259e565b7001034b99036b4b9b9b4b733903937b6329607d1b60179184019182015283516123f681602884016020880161259e565b01602801949350505050565b6001600160a01b038581168252841660208201526040810183905260806060820181905260009061243590830184612322565b9695505050505050565b602081526000610f846020830184612322565b60208082526032908201527f4552433732313a207472616e7366657220746f206e6f6e20455243373231526560408201527131b2b4bb32b91034b6b83632b6b2b73a32b960711b606082015260800190565b60208082526031908201527f4552433732313a207472616e736665722063616c6c6572206973206e6f74206f6040820152701ddb995c881b9bdc88185c1c1c9bdd9959607a1b606082015260800190565b6000808335601e1984360301811261250c57600080fd5b83018035915067ffffffffffffffff82111561252757600080fd5b602001915036819003821315611c7657600080fd5b6000821982111561254f5761254f61264b565b500190565b60008261256357612563612661565b500490565b60008160001904831182151516156125825761258261264b565b500290565b6000828210156125995761259961264b565b500390565b60005b838110156125b95781810151838201526020016125a1565b83811115610cf65750506000910152565b6000816125d9576125d961264b565b506000190190565b600181811c908216806125f557607f821691505b6020821081141561261657634e487b7160e01b600052602260045260246000fd5b50919050565b60006000198214156126305761263061264b565b5060010190565b60008261264657612646612661565b500690565b634e487b7160e01b600052601160045260246000fd5b634e487b7160e01b600052601260045260246000fd5b634e487b7160e01b600052602160045260246000fd5b634e487b7160e01b600052603260045260246000fd5b634e487b7160e01b600052604160045260246000fd5b6001600160e01b031981168114611e3857600080fdfea2646970667358221220713bc5867a6f76b0fd4e3b9843ebe43b6d1a3bb0dfe8e0eea2c28d7fb0ce635064736f6c63430008070033",
  "linkReferences": {},
  "deployedLinkReferences": {}
}