{
  "_format": "hh-sol-artifact-1",
  "contractName": "GenericERC721",
  "sourceName": "contracts/ERC721/ERC721.sol",
  "abi": [
    {
      "anonymous": false,
      "inputs": [
        {
          "indexed": false,
          "internalType": "address",
          "name": "newWhitelistAddress",
          "type": "address"
        }
      ],
      "name": "AddressAddedToWhitelist",
      "type": "event"
    },
    {
      "anonymous": false,
      "inputs": [
        {
          "indexed": false,
          "internalType": "address",
          "name": "removedWhitelistAddress",
          "type": "address"
        }
      ],
      "name": "AddressRemovedFromWhitelist",
      "type": "event"
    },
    {
      "anonymous": false,
      "inputs": [
        {
          "indexed": true,
          "internalType": "address",
          "name": "owner",
          "type": "address"
        },
        {
          "indexed": true,
          "internalType": "address",
          "name": "approved",
          "type": "address"
        },
        {
          "indexed": true,
          "internalType": "uint256",
          "name": "tokenId",
          "type": "uint256"
        }
      ],
      "name": "Approval",
      "type": "event"
    },
    {
      "anonymous": false,
      "inputs": [
        {
          "indexed": true,
          "internalType": "address",
          "name": "owner",
          "type": "address"
        },
        {
          "indexed": true,
          "internalType": "address",
          "name": "operator",
          "type": "address"
        },
        {
          "indexed": false,
          "internalType": "bool",
          "name": "approved",
          "type": "bool"
        }
      ],
      "name": "ApprovalForAll",
      "type": "event"
    },
    {
      "anonymous": false,
      "inputs": [
        {
          "indexed": true,
          "internalType": "bytes32",
          "name": "role",
          "type": "bytes32"
        },
        {
          "indexed": true,
          "internalType": "bytes32",
          "name": "previousAdminRole",
          "type": "bytes32"
        },
        {
          "indexed": true,
          "internalType": "bytes32",
          "name": "newAdminRole",
          "type": "bytes32"
        }
      ],
      "name": "RoleAdminChanged",
      "type": "event"
    },
    {
      "anonymous": false,
      "inputs": [
        {
          "indexed": true,
          "internalType": "bytes32",
          "name": "role",
          "type": "bytes32"
        },
        {
          "indexed": true,
          "internalType": "address",
          "name": "account",
          "type": "address"
        },
        {
          "indexed": true,
          "internalType": "address",
          "name": "sender",
          "type": "address"
        }
      ],
      "name": "RoleGranted",
      "type": "event"
    },
    {
      "anonymous": false,
      "inputs": [
        {
          "indexed": true,
          "internalType": "bytes32",
          "name": "role",
          "type": "bytes32"
        },
        {
          "indexed": true,
          "internalType": "address",
          "name": "account",
          "type": "address"
        },
        {
          "indexed": true,
          "internalType": "address",
          "name": "sender",
          "type": "address"
        }
      ],
      "name": "RoleRevoked",
      "type": "event"
    },
    {
      "anonymous": false,
      "inputs": [
        {
          "indexed": true,
          "internalType": "address",
          "name": "from",
          "type": "address"
        },
        {
          "indexed": true,
          "internalType": "address",
          "name": "to",
          "type": "address"
        },
        {
          "indexed": true,
          "internalType": "uint256",
          "name": "tokenId",
          "type": "uint256"
        }
      ],
      "name": "Transfer",
      "type": "event"
    },
    {
      "inputs": [],
      "name": "DEFAULT_ADMIN_ROLE",
      "outputs": [
        {
          "internalType": "bytes32",
          "name": "",
          "type": "bytes32"
        }
      ],
      "stateMutability": "view",
      "type": "function"
    },
    {
      "inputs": [],
      "name": "MINTER_ROLE",
      "outputs": [
        {
          "internalType": "bytes32",
          "name": "",
          "type": "bytes32"
        }
      ],
      "stateMutability": "view",
      "type": "function"
    },
    {
      "inputs": [
        {
          "internalType": "address",
          "name": "addr",
          "type": "address"
        }
      ],
      "name": "addAddressToWhitelist",
      "outputs": [],
      "stateMutability": "nonpayable",
      "type": "function"
    },
    {
      "inputs": [
        {
          "internalType": "address",
          "name": "to",
          "type": "address"
        },
        {
          "internalType": "uint256",
          "name": "tokenId",
          "type": "uint256"
        }
      ],
      "name": "approve",
      "outputs": [],
      "stateMutability": "nonpayable",
      "type": "function"
    },
    {
      "inputs": [],
      "name": "availableToWithdraw",
      "outputs": [
        {
          "internalType": "uint256",
          "name": "",
          "type": "uint256"
        }
      ],
      "stateMutability": "view",
      "type": "function"
    },
    {
      "inputs": [
        {
          "internalType": "address",
          "name": "owner",
          "type": "address"
        }
      ],
      "name": "balanceOf",
      "outputs": [
        {
          "internalType": "uint256",
          "name": "",
          "type": "uint256"
        }
      ],
      "stateMutability": "view",
      "type": "function"
    },
    {
      "inputs": [
        {
          "internalType": "string",
          "name": "_currTokenURI",
          "type": "string"
        },
        {
          "internalType": "uint256",
          "name": "royaltyValue",
          "type": "uint256"
        }
      ],
      "name": "createNFT",
      "outputs": [
        {
          "internalType": "uint256",
          "name": "",
          "type": "uint256"
        }
      ],
      "stateMutability": "nonpayable",
      "type": "function"
    },
    {
      "inputs": [
        {
          "internalType": "uint256",
          "name": "tokenId",
          "type": "uint256"
        }
      ],
      "name": "exists",
      "outputs": [
        {
          "internalType": "bool",
          "name": "",
          "type": "bool"
        }
      ],
      "stateMutability": "view",
      "type": "function"
    },
    {
      "inputs": [
        {
          "internalType": "uint256",
          "name": "tokenId",
          "type": "uint256"
        }
      ],
      "name": "getApproved",
      "outputs": [
        {
          "internalType": "address",
          "name": "",
          "type": "address"
        }
      ],
      "stateMutability": "view",
      "type": "function"
    },
    {
      "inputs": [],
      "name": "getChainID",
      "outputs": [
        {
          "internalType": "uint256",
          "name": "",
          "type": "uint256"
        }
      ],
      "stateMutability": "view",
      "type": "function"
    },
    {
      "inputs": [
        {
          "internalType": "bytes32",
          "name": "role",
          "type": "bytes32"
        }
      ],
      "name": "getRoleAdmin",
      "outputs": [
        {
          "internalType": "bytes32",
          "name": "",
          "type": "bytes32"
        }
      ],
      "stateMutability": "view",
      "type": "function"
    },
    {
      "inputs": [
        {
          "internalType": "bytes32",
          "name": "role",
          "type": "bytes32"
        },
        {
          "internalType": "address",
          "name": "account",
          "type": "address"
        }
      ],
      "name": "grantRole",
      "outputs": [],
      "stateMutability": "nonpayable",
      "type": "function"
    },
    {
      "inputs": [
        {
          "internalType": "bytes32",
          "name": "role",
          "type": "bytes32"
        },
        {
          "internalType": "address",
          "name": "account",
          "type": "address"
        }
      ],
      "name": "hasRole",
      "outputs": [
        {
          "internalType": "bool",
          "name": "",
          "type": "bool"
        }
      ],
      "stateMutability": "view",
      "type": "function"
    },
    {
      "inputs": [
        {
          "internalType": "string",
          "name": "_name",
          "type": "string"
        },
        {
          "internalType": "string",
          "name": "_symbol",
          "type": "string"
        },
        {
          "internalType": "string",
          "name": "signDomain",
          "type": "string"
        },
        {
          "internalType": "string",
          "name": "signVersion",
          "type": "string"
        },
        {
          "internalType": "address payable",
          "name": "minter",
          "type": "address"
        },
        {
          "internalType": "string",
          "name": "_newBaseURI",
          "type": "string"
        },
        {
          "internalType": "address[]",
          "name": "_whitelistAddresses",
          "type": "address[]"
        }
      ],
      "name": "initialize",
      "outputs": [],
      "stateMutability": "nonpayable",
      "type": "function"
    },
    {
      "inputs": [
        {
          "internalType": "address",
          "name": "owner",
          "type": "address"
        },
        {
          "internalType": "address",
          "name": "operator",
          "type": "address"
        }
      ],
      "name": "isApprovedForAll",
      "outputs": [
        {
          "internalType": "bool",
          "name": "",
          "type": "bool"
        }
      ],
      "stateMutability": "view",
      "type": "function"
    },
    {
      "inputs": [],
      "name": "name",
      "outputs": [
        {
          "internalType": "string",
          "name": "",
          "type": "string"
        }
      ],
      "stateMutability": "view",
      "type": "function"
    },
    {
      "inputs": [
        {
          "internalType": "uint256",
          "name": "tokenId",
          "type": "uint256"
        }
      ],
      "name": "ownerOf",
      "outputs": [
        {
          "internalType": "address",
          "name": "",
          "type": "address"
        }
      ],
      "stateMutability": "view",
      "type": "function"
    },
    {
      "inputs": [
        {
          "internalType": "address",
          "name": "redeemer",
          "type": "address"
        },
        {
          "components": [
            {
              "internalType": "uint256",
              "name": "tokenId",
              "type": "uint256"
            },
            {
              "internalType": "uint256",
              "name": "minPrice",
              "type": "uint256"
            },
            {
              "internalType": "string",
              "name": "uri",
              "type": "string"
            },
            {
              "internalType": "bytes",
              "name": "signature",
              "type": "bytes"
            }
          ],
          "internalType": "struct LazyNFTERC721.NFTVoucher",
          "name": "voucher",
          "type": "tuple"
        }
      ],
      "name": "redeem",
      "outputs": [
        {
          "internalType": "uint256",
          "name": "",
          "type": "uint256"
        }
      ],
      "stateMutability": "payable",
      "type": "function"
    },
    {
      "inputs": [
        {
          "internalType": "address",
          "name": "addr",
          "type": "address"
        }
      ],
      "name": "removeAddressFromWhitelist",
      "outputs": [],
      "stateMutability": "nonpayable",
      "type": "function"
    },
    {
      "inputs": [
        {
          "internalType": "bytes32",
          "name": "role",
          "type": "bytes32"
        },
        {
          "internalType": "address",
          "name": "account",
          "type": "address"
        }
      ],
      "name": "renounceRole",
      "outputs": [],
      "stateMutability": "nonpayable",
      "type": "function"
    },
    {
      "inputs": [
        {
          "internalType": "bytes32",
          "name": "role",
          "type": "bytes32"
        },
        {
          "internalType": "address",
          "name": "account",
          "type": "address"
        }
      ],
      "name": "revokeRole",
      "outputs": [],
      "stateMutability": "nonpayable",
      "type": "function"
    },
    {
      "inputs": [
        {
          "internalType": "uint256",
          "name": "tokenId",
          "type": "uint256"
        },
        {
          "internalType": "uint256",
          "name": "value",
          "type": "uint256"
        }
      ],
      "name": "royaltyInfo",
      "outputs": [
        {
          "internalType": "address",
          "name": "receiver",
          "type": "address"
        },
        {
          "internalType": "uint256",
          "name": "royaltyAmount",
          "type": "uint256"
        }
      ],
      "stateMutability": "view",
      "type": "function"
    },
    {
      "inputs": [
        {
          "internalType": "address",
          "name": "from",
          "type": "address"
        },
        {
          "internalType": "address",
          "name": "to",
          "type": "address"
        },
        {
          "internalType": "uint256",
          "name": "tokenId",
          "type": "uint256"
        }
      ],
      "name": "safeTransferFrom",
      "outputs": [],
      "stateMutability": "nonpayable",
      "type": "function"
    },
    {
      "inputs": [
        {
          "internalType": "address",
          "name": "from",
          "type": "address"
        },
        {
          "internalType": "address",
          "name": "to",
          "type": "address"
        },
        {
          "internalType": "uint256",
          "name": "tokenId",
          "type": "uint256"
        },
        {
          "internalType": "bytes",
          "name": "_data",
          "type": "bytes"
        }
      ],
      "name": "safeTransferFrom",
      "outputs": [],
      "stateMutability": "nonpayable",
      "type": "function"
    },
    {
      "inputs": [
        {
          "internalType": "address",
          "name": "operator",
          "type": "address"
        },
        {
          "internalType": "bool",
          "name": "approved",
          "type": "bool"
        }
      ],
      "name": "setApprovalForAll",
      "outputs": [],
      "stateMutability": "nonpayable",
      "type": "function"
    },
    {
      "inputs": [
        {
          "internalType": "bytes4",
          "name": "interfaceId",
          "type": "bytes4"
        }
      ],
      "name": "supportsInterface",
      "outputs": [
        {
          "internalType": "bool",
          "name": "",
          "type": "bool"
        }
      ],
      "stateMutability": "view",
      "type": "function"
    },
    {
      "inputs": [],
      "name": "symbol",
      "outputs": [
        {
          "internalType": "string",
          "name": "",
          "type": "string"
        }
      ],
      "stateMutability": "view",
      "type": "function"
    },
    {
      "inputs": [
        {
          "internalType": "uint256",
          "name": "tokenId",
          "type": "uint256"
        }
      ],
      "name": "tokenURI",
      "outputs": [
        {
          "internalType": "string",
          "name": "",
          "type": "string"
        }
      ],
      "stateMutability": "view",
      "type": "function"
    },
    {
      "inputs": [
        {
          "internalType": "address",
          "name": "from",
          "type": "address"
        },
        {
          "internalType": "address",
          "name": "to",
          "type": "address"
        },
        {
          "internalType": "uint256",
          "name": "tokenId",
          "type": "uint256"
        }
      ],
      "name": "transferFrom",
      "outputs": [],
      "stateMutability": "nonpayable",
      "type": "function"
    },
    {
      "inputs": [],
      "name": "withdraw",
      "outputs": [],
      "stateMutability": "nonpayable",
      "type": "function"
    }
  ],
  "bytecode": "0x608060405234801561001057600080fd5b50613040806100206000396000f3fe6080604052600436106101cd5760003560e01c8063564b81ef116100f7578063a217fddf11610095578063d539139311610064578063d539139314610545578063d547741f14610579578063e322ad2b14610599578063e985e9c5146105bc57600080fd5b8063a217fddf146104d0578063a22cb465146104e5578063b88d4fde14610505578063c87b56dd1461052557600080fd5b80637b9417c8116100d15780637b9417c81461045b57806391d148541461047b57806395d89b411461049b5780639784444d146104b057600080fd5b8063564b81ef146104085780636352211e1461041b57806370a082311461043b57600080fd5b8063268291551161016f57806336568abe1161013e57806336568abe146103935780633ccfd60b146103b357806342842e0e146103c85780634f558e79146103e857600080fd5b806326829155146102f4578063286dd3f5146103145780632a55205a146103345780632f2ff15d1461037357600080fd5b806308708a78116101ab57806308708a7814610261578063095ea7b31461028257806323b872dd146102a4578063248a9ca3146102c457600080fd5b806301ffc9a7146101d257806306fdde0314610207578063081812fc14610229575b600080fd5b3480156101de57600080fd5b506101f26101ed3660046129d6565b610605565b60405190151581526020015b60405180910390f35b34801561021357600080fd5b5061021c610630565b6040516101fe9190612c9b565b34801561023557600080fd5b50610249610244366004612998565b6106c2565b6040516001600160a01b0390911681526020016101fe565b61027461026f366004612920565b61074f565b6040519081526020016101fe565b34801561028e57600080fd5b506102a261029d36600461296c565b61084b565b005b3480156102b057600080fd5b506102a26102bf36600461282c565b610961565b3480156102d057600080fd5b506102746102df366004612998565b600090815260fd602052604090206001015490565b34801561030057600080fd5b5061027461030f366004612b17565b610992565b34801561032057600080fd5b506102a261032f3660046127d6565b610a35565b34801561034057600080fd5b5061035461034f366004612b5c565b610ae7565b604080516001600160a01b0390931683526020830191909152016101fe565b34801561037f57600080fd5b506102a261038e3660046129b1565b610b46565b34801561039f57600080fd5b506102a26103ae3660046129b1565b610b6c565b3480156103bf57600080fd5b506102a2610bea565b3480156103d457600080fd5b506102a26103e336600461282c565b610cb0565b3480156103f457600080fd5b506101f2610403366004612998565b610ccb565b34801561041457600080fd5b5046610274565b34801561042757600080fd5b50610249610436366004612998565b610cd6565b34801561044757600080fd5b506102746104563660046127d6565b610d4d565b34801561046757600080fd5b506102a26104763660046127d6565b610dd4565b34801561048757600080fd5b506101f26104963660046129b1565b610e82565b3480156104a757600080fd5b5061021c610ead565b3480156104bc57600080fd5b506102a26104cb366004612a10565b610ebc565b3480156104dc57600080fd5b50610274600081565b3480156104f157600080fd5b506102a26105003660046128ed565b610f58565b34801561051157600080fd5b506102a261052036600461286d565b610f63565b34801561053157600080fd5b5061021c610540366004612998565b610f9b565b34801561055157600080fd5b506102747f9f2df0fed2c77648de5860a4cc508cd0818c85b8b8a1ab4ceeef8d981c8956a681565b34801561058557600080fd5b506102a26105943660046129b1565b611105565b3480156105a557600080fd5b503360009081526101316020526040902054610274565b3480156105c857600080fd5b506101f26105d73660046127f3565b6001600160a01b039182166000908152606a6020908152604080832093909416825291909152205460ff1690565b60006001600160e01b0319821663152a902d60e11b148061062a575061062a8261112b565b92915050565b60606065805461063f90612f07565b80601f016020809104026020016040519081016040528092919081815260200182805461066b90612f07565b80156106b85780601f1061068d576101008083540402835291602001916106b8565b820191906000526020600020905b81548152906001019060200180831161069b57829003601f168201915b5050505050905090565b60006106cd82611136565b6107335760405162461bcd60e51b815260206004820152602c60248201527f4552433732313a20617070726f76656420717565727920666f72206e6f6e657860448201526b34b9ba32b73a103a37b5b2b760a11b60648201526084015b60405180910390fd5b506000908152606960205260409020546001600160a01b031690565b60008061075b83611153565b905082602001353410156107b15760405162461bcd60e51b815260206004820152601c60248201527f496e73756666696369656e742066756e647320746f2072656465656d00000000604482015260640161072a565b6107bc8184356111ac565b61080883356107ce6040860186612dea565b8080601f0160208091040260200160405190810160405280939291908181526020018383808284376000920191909152506112df92505050565b6108148185853561136a565b6001600160a01b038116600090815261013160205260408120805434929061083d908490612e62565b909155505091359392505050565b600061085682610cd6565b9050806001600160a01b0316836001600160a01b031614156108c45760405162461bcd60e51b815260206004820152602160248201527f4552433732313a20617070726f76616c20746f2063757272656e74206f776e656044820152603960f91b606482015260840161072a565b336001600160a01b03821614806108e057506108e081336105d7565b6109525760405162461bcd60e51b815260206004820152603860248201527f4552433732313a20617070726f76652063616c6c6572206973206e6f74206f7760448201527f6e6572206e6f7220617070726f76656420666f7220616c6c0000000000000000606482015260840161072a565b61095c8383611506565b505050565b61096b3382611574565b6109875760405162461bcd60e51b815260040161072a90612d4e565b61095c83838361136a565b60008251600014156109e65760405162461bcd60e51b815260206004820152601960248201527f546f6b656e205552492063616e6e6f7420626520656d70747900000000000000604482015260640161072a565b6109f561013380546001019055565b610a0233610133546111ac565b610a15610a0f6101335490565b846112df565b610a29610a226101335490565b338461165a565b610133545b9392505050565b33600090815261012f602052604090205460ff16610a8e5760405162461bcd60e51b815260206004820152601660248201527529b2b73232b91034b9903737ba1030b71020b236b4b760511b604482015260640161072a565b6001600160a01b038116600081815261012f6020908152604091829020805460ff1916905590519182527f535611fb62fa2a833988f283b779e417e996813e44046f521d76c17b5943b08c91015b60405180910390a150565b6000828152610132602090815260408083208151808301909252546001600160a01b038116808352600160a01b90910462ffffff16928201839052929161271090610b329086612e8e565b610b3c9190612e7a565b9150509250929050565b600082815260fd6020526040902060010154610b628133611704565b61095c8383611768565b6001600160a01b0381163314610bdc5760405162461bcd60e51b815260206004820152602f60248201527f416363657373436f6e74726f6c3a2063616e206f6e6c792072656e6f756e636560448201526e103937b632b9903337b91039b2b63360891b606482015260840161072a565b610be682826117ee565b5050565b610c147f9f2df0fed2c77648de5860a4cc508cd0818c85b8b8a1ab4ceeef8d981c8956a633610e82565b610c6c5760405162461bcd60e51b8152602060048201526024808201527f4f6e6c7920617574686f72697a6564206d696e746572732063616e20776974686044820152636472617760e01b606482015260840161072a565b336000818152610131602052604080822080549083905590519091839183156108fc0291849190818181858888f1935050505015801561095c573d6000803e3d6000fd5b61095c83838360405180602001604052806000815250610f63565b600061062a82611136565b6000818152606760205260408120546001600160a01b03168061062a5760405162461bcd60e51b815260206004820152602960248201527f4552433732313a206f776e657220717565727920666f72206e6f6e657869737460448201526832b73a103a37b5b2b760b91b606482015260840161072a565b60006001600160a01b038216610db85760405162461bcd60e51b815260206004820152602a60248201527f4552433732313a2062616c616e636520717565727920666f7220746865207a65604482015269726f206164647265737360b01b606482015260840161072a565b506001600160a01b031660009081526068602052604090205490565b33600090815261012f602052604090205460ff16610e2d5760405162461bcd60e51b815260206004820152601660248201527529b2b73232b91034b9903737ba1030b71020b236b4b760511b604482015260640161072a565b6001600160a01b038116600081815261012f6020908152604091829020805460ff1916600117905590519182527f534d18c8ff24ba5980906d732f3075704749427353734fbbf05d50485643b1249101610adc565b600091825260fd602090815260408084206001600160a01b0393909316845291905290205460ff1690565b60606066805461063f90612f07565b600054610100900460ff16610ed75760005460ff1615610edb565b303b155b610ef75760405162461bcd60e51b815260040161072a90612d00565b600054610100900460ff16158015610f19576000805461ffff19166101011790555b610f27888888888887611855565b8251610f3b90610134906020860190612626565b508015610f4e576000805461ff00191690555b5050505050505050565b610be633838361191c565b610f6d3383611574565b610f895760405162461bcd60e51b815260040161072a90612d4e565b610f95848484846119eb565b50505050565b6060610fa682611136565b61100c5760405162461bcd60e51b815260206004820152603160248201527f45524337323155524953746f726167653a2055524920717565727920666f72206044820152703737b732bc34b9ba32b73a103a37b5b2b760791b606482015260840161072a565b6000828152609760205260408120805461102590612f07565b80601f016020809104026020016040519081016040528092919081815260200182805461105190612f07565b801561109e5780601f106110735761010080835404028352916020019161109e565b820191906000526020600020905b81548152906001019060200180831161108157829003601f168201915b5050505050905060006110af611a1e565b90508051600014156110c2575092915050565b8151156110f45780826040516020016110dc929190612bba565b60405160208183030381529060405292505050919050565b6110fd84611a2e565b949350505050565b600082815260fd60205260409020600101546111218133611704565b61095c83836117ee565b600061062a82611af8565b6000908152606760205260409020546001600160a01b0316151590565b60008061115f83611b12565b9050610a2e816111726060860186612dea565b8080601f016020809104026020016040519081016040528093929190818152602001838380828437600092019190915250611ba392505050565b6001600160a01b0382166112025760405162461bcd60e51b815260206004820181905260248201527f4552433732313a206d696e7420746f20746865207a65726f2061646472657373604482015260640161072a565b61120b81611136565b156112585760405162461bcd60e51b815260206004820152601c60248201527f4552433732313a20746f6b656e20616c7265616479206d696e74656400000000604482015260640161072a565b6001600160a01b0382166000908152606860205260408120805460019290611281908490612e62565b909155505060008181526067602052604080822080546001600160a01b0319166001600160a01b03861690811790915590518392907fddf252ad1be2c89b69c2b068fc378daa952ba7f163c4a11628f55a4df523b3ef908290a45050565b6112e882611136565b61134b5760405162461bcd60e51b815260206004820152602e60248201527f45524337323155524953746f726167653a2055524920736574206f66206e6f6e60448201526d32bc34b9ba32b73a103a37b5b2b760911b606482015260840161072a565b6000828152609760209081526040909120825161095c92840190612626565b826001600160a01b031661137d82610cd6565b6001600160a01b0316146113e15760405162461bcd60e51b815260206004820152602560248201527f4552433732313a207472616e736665722066726f6d20696e636f72726563742060448201526437bbb732b960d91b606482015260840161072a565b6001600160a01b0382166114435760405162461bcd60e51b8152602060048201526024808201527f4552433732313a207472616e7366657220746f20746865207a65726f206164646044820152637265737360e01b606482015260840161072a565b61144e600082611506565b6001600160a01b0383166000908152606860205260408120805460019290611477908490612ead565b90915550506001600160a01b03821660009081526068602052604081208054600192906114a5908490612e62565b909155505060008181526067602052604080822080546001600160a01b0319166001600160a01b0386811691821790925591518493918716917fddf252ad1be2c89b69c2b068fc378daa952ba7f163c4a11628f55a4df523b3ef91a4505050565b600081815260696020526040902080546001600160a01b0319166001600160a01b038416908117909155819061153b82610cd6565b6001600160a01b03167f8c5be1e5ebec7d5bd14f71427d1e84f3dd0314c0f7b2291e5b200ac8c7c3b92560405160405180910390a45050565b600061157f82611136565b6115e05760405162461bcd60e51b815260206004820152602c60248201527f4552433732313a206f70657261746f7220717565727920666f72206e6f6e657860448201526b34b9ba32b73a103a37b5b2b760a11b606482015260840161072a565b60006115eb83610cd6565b9050806001600160a01b0316846001600160a01b031614806116265750836001600160a01b031661161b846106c2565b6001600160a01b0316145b806110fd57506001600160a01b038082166000908152606a602090815260408083209388168352929052205460ff166110fd565b6127108111156116ac5760405162461bcd60e51b815260206004820152601a60248201527f45524332393831526f79616c746965733a20546f6f2068696768000000000000604482015260640161072a565b6040805180820182526001600160a01b03938416815262ffffff92831660208083019182526000968752610132905291909420935184549151909216600160a01b026001600160b81b03199091169190921617179055565b61170e8282610e82565b610be657611726816001600160a01b03166014611bc7565b611731836020611bc7565b604051602001611742929190612be9565b60408051601f198184030181529082905262461bcd60e51b825261072a91600401612c9b565b6117728282610e82565b610be657600082815260fd602090815260408083206001600160a01b03851684529091529020805460ff191660011790556117aa3390565b6001600160a01b0316816001600160a01b0316837f2f8788117e7eff1d82e926ec794901d17c78024a50270940304540a733656f0d60405160405180910390a45050565b6117f88282610e82565b15610be657600082815260fd602090815260408083206001600160a01b0385168085529252808320805460ff1916905551339285917ff6391f5c32d9c69d2a47ea670b442974b53935d1edc7fd64eb21e047a839171b9190a45050565b600054610100900460ff166118705760005460ff1615611874565b303b155b6118905760405162461bcd60e51b815260040161072a90612d00565b600054610100900460ff161580156118b2576000805461ffff19166101011790555b6118bc8787611d63565b6118c4611d94565b6118ce8585611dbd565b6118d782611dee565b6119017f9f2df0fed2c77648de5860a4cc508cd0818c85b8b8a1ab4ceeef8d981c8956a684611eeb565b8015611913576000805461ff00191690555b50505050505050565b816001600160a01b0316836001600160a01b0316141561197e5760405162461bcd60e51b815260206004820152601960248201527f4552433732313a20617070726f766520746f2063616c6c657200000000000000604482015260640161072a565b6001600160a01b038381166000818152606a6020908152604080832094871680845294825291829020805460ff191686151590811790915591519182527f17307eab39ab6107e8899845ad3d59bd9653f200f220920489ca2b5937696c31910160405180910390a3505050565b6119f684848461136a565b611a0284848484611ef5565b610f955760405162461bcd60e51b815260040161072a90612cae565b6060610134805461063f90612f07565b6060611a3982611136565b611a9d5760405162461bcd60e51b815260206004820152602f60248201527f4552433732314d657461646174613a2055524920717565727920666f72206e6f60448201526e3732bc34b9ba32b73a103a37b5b2b760891b606482015260840161072a565b6000611aa7611a1e565b90506000815111611ac75760405180602001604052806000815250610a2e565b80611ad184612002565b604051602001611ae2929190612bba565b6040516020818303038152906040529392505050565b6000611b0382612100565b8061062a575061062a82612150565b600061062a7f6316f9ddd4d59a364f3b95c26bab9d392c3380ace0fff15e91ed76f0d8bcd15a83356020850135611b4c6040870187612dea565b604051611b5a929190612baa565b604051908190038120611b889493929160200193845260208401929092526040830152606082015260800190565b60405160208183030381529060405280519060200120612175565b6000806000611bb285856121c3565b91509150611bbf81612233565b509392505050565b60606000611bd6836002612e8e565b611be1906002612e62565b67ffffffffffffffff811115611bf957611bf9612fc9565b6040519080825280601f01601f191660200182016040528015611c23576020820181803683370190505b509050600360fc1b81600081518110611c3e57611c3e612fb3565b60200101906001600160f81b031916908160001a905350600f60fb1b81600181518110611c6d57611c6d612fb3565b60200101906001600160f81b031916908160001a9053506000611c91846002612e8e565b611c9c906001612e62565b90505b6001811115611d14576f181899199a1a9b1b9c1cb0b131b232b360811b85600f1660108110611cd057611cd0612fb3565b1a60f81b828281518110611ce657611ce6612fb3565b60200101906001600160f81b031916908160001a90535060049490941c93611d0d81612ef0565b9050611c9f565b508315610a2e5760405162461bcd60e51b815260206004820181905260248201527f537472696e67733a20686578206c656e67746820696e73756666696369656e74604482015260640161072a565b600054610100900460ff16611d8a5760405162461bcd60e51b815260040161072a90612d9f565b610be682826123f1565b600054610100900460ff16611dbb5760405162461bcd60e51b815260040161072a90612d9f565b565b600054610100900460ff16611de45760405162461bcd60e51b815260040161072a90612d9f565b610be6828261243f565b600054610100900460ff16611e095760005460ff1615611e0d565b303b155b611e295760405162461bcd60e51b815260040161072a90612d00565b600054610100900460ff16158015611e4b576000805461ffff19166101011790555b611e53611d94565b33600090815261012f60205260408120805460ff191660011790555b8251811015611ed557600161012f6000858481518110611e9157611e91612fb3565b6020908102919091018101516001600160a01b03168252810191909152604001600020805460ff191691151591909117905580611ecd81612f42565b915050611e6f565b508015610be6576000805461ff00191690555050565b610be68282611768565b60006001600160a01b0384163b15611ff757604051630a85bd0160e11b81526001600160a01b0385169063150b7a0290611f39903390899088908890600401612c5e565b602060405180830381600087803b158015611f5357600080fd5b505af1925050508015611f83575060408051601f3d908101601f19168201909252611f80918101906129f3565b60015b611fdd573d808015611fb1576040519150601f19603f3d011682016040523d82523d6000602084013e611fb6565b606091505b508051611fd55760405162461bcd60e51b815260040161072a90612cae565b805181602001fd5b6001600160e01b031916630a85bd0160e11b1490506110fd565b506001949350505050565b6060816120265750506040805180820190915260018152600360fc1b602082015290565b8160005b8115612050578061203a81612f42565b91506120499050600a83612e7a565b915061202a565b60008167ffffffffffffffff81111561206b5761206b612fc9565b6040519080825280601f01601f191660200182016040528015612095576020820181803683370190505b5090505b84156110fd576120aa600183612ead565b91506120b7600a86612f5d565b6120c2906030612e62565b60f81b8183815181106120d7576120d7612fb3565b60200101906001600160f81b031916908160001a9053506120f9600a86612e7a565b9450612099565b60006001600160e01b031982166380ac58cd60e01b148061213157506001600160e01b03198216635b5e139f60e01b145b8061062a57506301ffc9a760e01b6001600160e01b031983161461062a565b60006001600160e01b03198216637965db0b60e01b148061062a575061062a82612100565b600061062a612182612480565b8360405161190160f01b6020820152602281018390526042810182905260009060620160405160208183030381529060405280519060200120905092915050565b6000808251604114156121fa5760208301516040840151606085015160001a6121ee87828585612500565b9450945050505061222c565b82516040141561222457602083015160408401516122198683836125ed565b93509350505061222c565b506000905060025b9250929050565b600081600481111561224757612247612f9d565b14156122505750565b600181600481111561226457612264612f9d565b14156122b25760405162461bcd60e51b815260206004820152601860248201527f45434453413a20696e76616c6964207369676e61747572650000000000000000604482015260640161072a565b60028160048111156122c6576122c6612f9d565b14156123145760405162461bcd60e51b815260206004820152601f60248201527f45434453413a20696e76616c6964207369676e6174757265206c656e67746800604482015260640161072a565b600381600481111561232857612328612f9d565b14156123815760405162461bcd60e51b815260206004820152602260248201527f45434453413a20696e76616c6964207369676e6174757265202773272076616c604482015261756560f01b606482015260840161072a565b600481600481111561239557612395612f9d565b14156123ee5760405162461bcd60e51b815260206004820152602260248201527f45434453413a20696e76616c6964207369676e6174757265202776272076616c604482015261756560f01b606482015260840161072a565b50565b600054610100900460ff166124185760405162461bcd60e51b815260040161072a90612d9f565b815161242b906065906020850190612626565b50805161095c906066906020840190612626565b600054610100900460ff166124665760405162461bcd60e51b815260040161072a90612d9f565b81516020928301208151919092012060c99190915560ca55565b60006124fb7f8b73c3c69bb8fe3d512ecc4cf759cc79239f7b179b0ffacaa9a75d522b39400f6124af60c95490565b60ca546040805160208101859052908101839052606081018290524660808201523060a082015260009060c0016040516020818303038152906040528051906020012090509392505050565b905090565b6000807f7fffffffffffffffffffffffffffffff5d576e7357a4501ddfe92f46681b20a083111561253757506000905060036125e4565b8460ff16601b1415801561254f57508460ff16601c14155b1561256057506000905060046125e4565b6040805160008082526020820180845289905260ff881692820192909252606081018690526080810185905260019060a0016020604051602081039080840390855afa1580156125b4573d6000803e3d6000fd5b5050604051601f1901519150506001600160a01b0381166125dd576000600192509250506125e4565b9150600090505b94509492505050565b6000806001600160ff1b0383168161260a60ff86901c601b612e62565b905061261887828885612500565b935093505050935093915050565b82805461263290612f07565b90600052602060002090601f016020900481019282612654576000855561269a565b82601f1061266d57805160ff191683800117855561269a565b8280016001018555821561269a579182015b8281111561269a57825182559160200191906001019061267f565b506126a69291506126aa565b5090565b5b808211156126a657600081556001016126ab565b600067ffffffffffffffff8311156126d9576126d9612fc9565b6126ec601f8401601f1916602001612e31565b905082815283838301111561270057600080fd5b828260208301376000602084830101529392505050565b803561272281612fdf565b919050565b600082601f83011261273857600080fd5b8135602067ffffffffffffffff82111561275457612754612fc9565b8160051b612763828201612e31565b83815282810190868401838801850189101561277e57600080fd5b600093505b858410156127aa57803561279681612fdf565b835260019390930192918401918401612783565b50979650505050505050565b600082601f8301126127c757600080fd5b610a2e838335602085016126bf565b6000602082840312156127e857600080fd5b8135610a2e81612fdf565b6000806040838503121561280657600080fd5b823561281181612fdf565b9150602083013561282181612fdf565b809150509250929050565b60008060006060848603121561284157600080fd5b833561284c81612fdf565b9250602084013561285c81612fdf565b929592945050506040919091013590565b6000806000806080858703121561288357600080fd5b843561288e81612fdf565b9350602085013561289e81612fdf565b925060408501359150606085013567ffffffffffffffff8111156128c157600080fd5b8501601f810187136128d257600080fd5b6128e1878235602084016126bf565b91505092959194509250565b6000806040838503121561290057600080fd5b823561290b81612fdf565b91506020830135801515811461282157600080fd5b6000806040838503121561293357600080fd5b823561293e81612fdf565b9150602083013567ffffffffffffffff81111561295a57600080fd5b83016080818603121561282157600080fd5b6000806040838503121561297f57600080fd5b823561298a81612fdf565b946020939093013593505050565b6000602082840312156129aa57600080fd5b5035919050565b600080604083850312156129c457600080fd5b82359150602083013561282181612fdf565b6000602082840312156129e857600080fd5b8135610a2e81612ff4565b600060208284031215612a0557600080fd5b8151610a2e81612ff4565b600080600080600080600060e0888a031215612a2b57600080fd5b873567ffffffffffffffff80821115612a4357600080fd5b612a4f8b838c016127b6565b985060208a0135915080821115612a6557600080fd5b612a718b838c016127b6565b975060408a0135915080821115612a8757600080fd5b612a938b838c016127b6565b965060608a0135915080821115612aa957600080fd5b612ab58b838c016127b6565b9550612ac360808b01612717565b945060a08a0135915080821115612ad957600080fd5b612ae58b838c016127b6565b935060c08a0135915080821115612afb57600080fd5b50612b088a828b01612727565b91505092959891949750929550565b60008060408385031215612b2a57600080fd5b823567ffffffffffffffff811115612b4157600080fd5b612b4d858286016127b6565b95602094909401359450505050565b60008060408385031215612b6f57600080fd5b50508035926020909101359150565b60008151808452612b96816020860160208601612ec4565b601f01601f19169290920160200192915050565b8183823760009101908152919050565b60008351612bcc818460208801612ec4565b835190830190612be0818360208801612ec4565b01949350505050565b7f416363657373436f6e74726f6c3a206163636f756e7420000000000000000000815260008351612c21816017850160208801612ec4565b7001034b99036b4b9b9b4b733903937b6329607d1b6017918401918201528351612c52816028840160208801612ec4565b01602801949350505050565b6001600160a01b0385811682528416602082015260408101839052608060608201819052600090612c9190830184612b7e565b9695505050505050565b602081526000610a2e6020830184612b7e565b60208082526032908201527f4552433732313a207472616e7366657220746f206e6f6e20455243373231526560408201527131b2b4bb32b91034b6b83632b6b2b73a32b960711b606082015260800190565b6020808252602e908201527f496e697469616c697a61626c653a20636f6e747261637420697320616c72656160408201526d191e481a5b9a5d1a585b1a5e995960921b606082015260800190565b60208082526031908201527f4552433732313a207472616e736665722063616c6c6572206973206e6f74206f6040820152701ddb995c881b9bdc88185c1c1c9bdd9959607a1b606082015260800190565b6020808252602b908201527f496e697469616c697a61626c653a20636f6e7472616374206973206e6f74206960408201526a6e697469616c697a696e6760a81b606082015260800190565b6000808335601e19843603018112612e0157600080fd5b83018035915067ffffffffffffffff821115612e1c57600080fd5b60200191503681900382131561222c57600080fd5b604051601f8201601f1916810167ffffffffffffffff81118282101715612e5a57612e5a612fc9565b604052919050565b60008219821115612e7557612e75612f71565b500190565b600082612e8957612e89612f87565b500490565b6000816000190483118215151615612ea857612ea8612f71565b500290565b600082821015612ebf57612ebf612f71565b500390565b60005b83811015612edf578181015183820152602001612ec7565b83811115610f955750506000910152565b600081612eff57612eff612f71565b506000190190565b600181811c90821680612f1b57607f821691505b60208210811415612f3c57634e487b7160e01b600052602260045260246000fd5b50919050565b6000600019821415612f5657612f56612f71565b5060010190565b600082612f6c57612f6c612f87565b500690565b634e487b7160e01b600052601160045260246000fd5b634e487b7160e01b600052601260045260246000fd5b634e487b7160e01b600052602160045260246000fd5b634e487b7160e01b600052603260045260246000fd5b634e487b7160e01b600052604160045260246000fd5b6001600160a01b03811681146123ee57600080fd5b6001600160e01b0319811681146123ee57600080fdfea26469706673582212202c301c2d54ecaa6b09bed140f73dc98c3a8878456a10eba47b9eaaeefa9f2c2164736f6c63430008070033",
  "linkReferences": {},
  "deployedLinkReferences": {}
}