{
  "_format": "hh-sol-artifact-1",
  "contractName": "GenericAccessControl",
  "sourceName": "contracts/AccessControl.sol",
  "abi": [
    {
      "anonymous": false,
      "inputs": [
        {
          "indexed": false,
          "internalType": "address",
          "name": "newWhitelistAddress",
          "type": "address"
        }
      ],
      "name": "AddressAddedToWhitelist",
      "type": "event"
    },
    {
      "anonymous": false,
      "inputs": [
        {
          "indexed": false,
          "internalType": "address",
          "name": "removedWhitelistAddress",
          "type": "address"
        }
      ],
      "name": "AddressRemovedFromWhitelist",
      "type": "event"
    },
    {
      "anonymous": false,
      "inputs": [
        {
          "indexed": true,
          "internalType": "bytes32",
          "name": "role",
          "type": "bytes32"
        },
        {
          "indexed": true,
          "internalType": "bytes32",
          "name": "previousAdminRole",
          "type": "bytes32"
        },
        {
          "indexed": true,
          "internalType": "bytes32",
          "name": "newAdminRole",
          "type": "bytes32"
        }
      ],
      "name": "RoleAdminChanged",
      "type": "event"
    },
    {
      "anonymous": false,
      "inputs": [
        {
          "indexed": true,
          "internalType": "bytes32",
          "name": "role",
          "type": "bytes32"
        },
        {
          "indexed": true,
          "internalType": "address",
          "name": "account",
          "type": "address"
        },
        {
          "indexed": true,
          "internalType": "address",
          "name": "sender",
          "type": "address"
        }
      ],
      "name": "RoleGranted",
      "type": "event"
    },
    {
      "anonymous": false,
      "inputs": [
        {
          "indexed": true,
          "internalType": "bytes32",
          "name": "role",
          "type": "bytes32"
        },
        {
          "indexed": true,
          "internalType": "address",
          "name": "account",
          "type": "address"
        },
        {
          "indexed": true,
          "internalType": "address",
          "name": "sender",
          "type": "address"
        }
      ],
      "name": "RoleRevoked",
      "type": "event"
    },
    {
      "inputs": [],
      "name": "DEFAULT_ADMIN_ROLE",
      "outputs": [
        {
          "internalType": "bytes32",
          "name": "",
          "type": "bytes32"
        }
      ],
      "stateMutability": "view",
      "type": "function"
    },
    {
      "inputs": [
        {
          "internalType": "address",
          "name": "addr",
          "type": "address"
        }
      ],
      "name": "addAddressToWhitelist",
      "outputs": [],
      "stateMutability": "nonpayable",
      "type": "function"
    },
    {
      "inputs": [
        {
          "internalType": "bytes32",
          "name": "role",
          "type": "bytes32"
        }
      ],
      "name": "getRoleAdmin",
      "outputs": [
        {
          "internalType": "bytes32",
          "name": "",
          "type": "bytes32"
        }
      ],
      "stateMutability": "view",
      "type": "function"
    },
    {
      "inputs": [
        {
          "internalType": "bytes32",
          "name": "role",
          "type": "bytes32"
        },
        {
          "internalType": "address",
          "name": "account",
          "type": "address"
        }
      ],
      "name": "grantRole",
      "outputs": [],
      "stateMutability": "nonpayable",
      "type": "function"
    },
    {
      "inputs": [
        {
          "internalType": "bytes32",
          "name": "role",
          "type": "bytes32"
        },
        {
          "internalType": "address",
          "name": "account",
          "type": "address"
        }
      ],
      "name": "hasRole",
      "outputs": [
        {
          "internalType": "bool",
          "name": "",
          "type": "bool"
        }
      ],
      "stateMutability": "view",
      "type": "function"
    },
    {
      "inputs": [
        {
          "internalType": "address",
          "name": "addr",
          "type": "address"
        }
      ],
      "name": "removeAddressFromWhitelist",
      "outputs": [],
      "stateMutability": "nonpayable",
      "type": "function"
    },
    {
      "inputs": [
        {
          "internalType": "bytes32",
          "name": "role",
          "type": "bytes32"
        },
        {
          "internalType": "address",
          "name": "account",
          "type": "address"
        }
      ],
      "name": "renounceRole",
      "outputs": [],
      "stateMutability": "nonpayable",
      "type": "function"
    },
    {
      "inputs": [
        {
          "internalType": "bytes32",
          "name": "role",
          "type": "bytes32"
        },
        {
          "internalType": "address",
          "name": "account",
          "type": "address"
        }
      ],
      "name": "revokeRole",
      "outputs": [],
      "stateMutability": "nonpayable",
      "type": "function"
    },
    {
      "inputs": [
        {
          "internalType": "bytes4",
          "name": "interfaceId",
          "type": "bytes4"
        }
      ],
      "name": "supportsInterface",
      "outputs": [
        {
          "internalType": "bool",
          "name": "",
          "type": "bool"
        }
      ],
      "stateMutability": "view",
      "type": "function"
    }
  ],
  "bytecode": "0x608060405234801561001057600080fd5b50610937806100206000396000f3fe608060405234801561001057600080fd5b50600436106100935760003560e01c806336568abe1161006657806336568abe146101195780637b9417c81461012c57806391d148541461013f578063a217fddf14610152578063d547741f1461015a57600080fd5b806301ffc9a714610098578063248a9ca3146100c0578063286dd3f5146100f15780632f2ff15d14610106575b600080fd5b6100ab6100a636600461076f565b61016d565b60405190151581526020015b60405180910390f35b6100e36100ce36600461072a565b60009081526065602052604090206001015490565b6040519081526020016100b7565b6101046100ff36600461070f565b6101a4565b005b610104610114366004610743565b610259565b610104610127366004610743565b610284565b61010461013a36600461070f565b610302565b6100ab61014d366004610743565b6103ae565b6100e3600081565b610104610168366004610743565b6103d9565b60006001600160e01b03198216637965db0b60e01b148061019e57506301ffc9a760e01b6001600160e01b03198316145b92915050565b3360009081526097602052604090205460ff166102015760405162461bcd60e51b815260206004820152601660248201527529b2b73232b91034b9903737ba1030b71020b236b4b760511b60448201526064015b60405180910390fd5b6001600160a01b038116600081815260976020908152604091829020805460ff1916905590519182527f535611fb62fa2a833988f283b779e417e996813e44046f521d76c17b5943b08c91015b60405180910390a150565b60008281526065602052604090206001015461027581336103ff565b61027f8383610463565b505050565b6001600160a01b03811633146102f45760405162461bcd60e51b815260206004820152602f60248201527f416363657373436f6e74726f6c3a2063616e206f6e6c792072656e6f756e636560448201526e103937b632b9903337b91039b2b63360891b60648201526084016101f8565b6102fe82826104e9565b5050565b3360009081526097602052604090205460ff1661035a5760405162461bcd60e51b815260206004820152601660248201527529b2b73232b91034b9903737ba1030b71020b236b4b760511b60448201526064016101f8565b6001600160a01b038116600081815260976020908152604091829020805460ff1916600117905590519182527f534d18c8ff24ba5980906d732f3075704749427353734fbbf05d50485643b124910161024e565b60009182526065602090815260408084206001600160a01b0393909316845291905290205460ff1690565b6000828152606560205260409020600101546103f581336103ff565b61027f83836104e9565b61040982826103ae565b6102fe57610421816001600160a01b03166014610550565b61042c836020610550565b60405160200161043d929190610799565b60408051601f198184030181529082905262461bcd60e51b82526101f89160040161080e565b61046d82826103ae565b6102fe5760008281526065602090815260408083206001600160a01b03851684529091529020805460ff191660011790556104a53390565b6001600160a01b0316816001600160a01b0316837f2f8788117e7eff1d82e926ec794901d17c78024a50270940304540a733656f0d60405160405180910390a45050565b6104f382826103ae565b156102fe5760008281526065602090815260408083206001600160a01b0385168085529252808320805460ff1916905551339285917ff6391f5c32d9c69d2a47ea670b442974b53935d1edc7fd64eb21e047a839171b9190a45050565b6060600061055f836002610859565b61056a906002610841565b67ffffffffffffffff811115610582576105826108eb565b6040519080825280601f01601f1916602001820160405280156105ac576020820181803683370190505b509050600360fc1b816000815181106105c7576105c76108d5565b60200101906001600160f81b031916908160001a905350600f60fb1b816001815181106105f6576105f66108d5565b60200101906001600160f81b031916908160001a905350600061061a846002610859565b610625906001610841565b90505b600181111561069d576f181899199a1a9b1b9c1cb0b131b232b360811b85600f1660108110610659576106596108d5565b1a60f81b82828151811061066f5761066f6108d5565b60200101906001600160f81b031916908160001a90535060049490941c93610696816108a8565b9050610628565b5083156106ec5760405162461bcd60e51b815260206004820181905260248201527f537472696e67733a20686578206c656e67746820696e73756666696369656e7460448201526064016101f8565b9392505050565b80356001600160a01b038116811461070a57600080fd5b919050565b60006020828403121561072157600080fd5b6106ec826106f3565b60006020828403121561073c57600080fd5b5035919050565b6000806040838503121561075657600080fd5b82359150610766602084016106f3565b90509250929050565b60006020828403121561078157600080fd5b81356001600160e01b0319811681146106ec57600080fd5b7f416363657373436f6e74726f6c3a206163636f756e74200000000000000000008152600083516107d1816017850160208801610878565b7001034b99036b4b9b9b4b733903937b6329607d1b6017918401918201528351610802816028840160208801610878565b01602801949350505050565b602081526000825180602084015261082d816040850160208701610878565b601f01601f19169190910160400192915050565b60008219821115610854576108546108bf565b500190565b6000816000190483118215151615610873576108736108bf565b500290565b60005b8381101561089357818101518382015260200161087b565b838111156108a2576000848401525b50505050565b6000816108b7576108b76108bf565b506000190190565b634e487b7160e01b600052601160045260246000fd5b634e487b7160e01b600052603260045260246000fd5b634e487b7160e01b600052604160045260246000fdfea26469706673582212203b6d8df330653d3ef67e9616edccef9f7e1e401ef4fbc2d06b2366a3620acbc164736f6c63430008070033",
  "linkReferences": {},
  "deployedLinkReferences": {}
}